:100000000C94C3080C94F4080C94F4080C94F408B1
:100010000C94F4080C94F4080C94F4080C94F40870
:100020000C94F4080C94F4080C94F4080C94F40860
:100030000C94F4080C94F4080C94F4080C94F40850
:100040000C94F4080C94F4080C94F4080C94F40840
:100050000C94F4080C94F4080C94F4080C94E859EB
:100060000C94F4080C945C5A0C94325A0C94F408D6
:100070000C94F4080C94F4080C94F4080C94F40810
:100080000C94F4080C94F4080C94F4080C94F40800
:100090000C94F4080C94F4080C94F4080C94925A00
:1000A0000C94F4080C94F4080C94F4080C94F408E0
:1000B0000C94F4080C94F4080C94F4080C94F408D0
:1000C0000C94F4080C94F4080C94F4080C94F408C0
:1000D0000C94F4080C94F4080C94F4080C94F408B0
:1000E0000C94F4080C94451B0C945D1B0C94AB3DD4
:1000F0000C94EC610C943D1B0C94A01E0C94FA1E05
:100100000C94331B0C94D63D0C94BF6B0C94E03DC7
:100110000C9484460C94CB0F0C94581B0C94011631
:100120000C9400200C94BD400C94790C0C940B356D
:100130000C94F81A0C942E3B0C94D7300C94510D5F
:100140000C948F180C9482130C94DA610C94371B66
:100150000C9495400C94531B0C944B3C0C94F7302E
:100160000C94B83D0C949A400C94D13D0C94181BFF
:100170000C94E3610C94DB3D0C94B8400C94EA3D84
:100180000C94F2610C94D3160C9487330C94591B85
:100190000C9411310C947F180C9470190C949040AD
:1001A0000C9487610C94B41E0C949F400C944431C1
:1001B0000C9431330C94BC300C949F130C94C23DBE
:1001C0000C94E53D0C94C6200C94F91A0C94CC3D8B
:1001D0000C94CE300C9471310C94B3400C94FE3DD1
:1001E0000C94F43D0C94C2400C944C1A0C94403383
:1001F0000C94B6330C94221B0C94BD3D0C94F93D29
:100200000C945A330C941E1B0C94911E0C94543174
:100210000C944F400C94C1200C949B180C94F861E2
:100220000C94C21E0C94F5610C94A9400C94023CF1
:100230000C942A1B0C94CD300C94EF610C94411B50
:100240000C9453330C942D1B0C94A4400C94B213B7
:100250000C9486400C9432170C944B1B0C944F1B3F
:100260000C94261B0C947E180C94471F0C94C740CA
:100270000C94EF3D0C94C73D0C9476400C94AE402A
:100280000C9435110C9481400C9493610C94035C94
:100290000C94C32E0C94641E0C94703D0C948B40F3
:1002A0004552524F523A2047534C435F53445F45A7
:1002B0004E206E6F7420656E61626C65640A00008A
:1002C0000020002300260029002C002F003200000F
:1002D0000100000301060109011F1C1F1E1F1E1F34
:1002E0001F1E1F1E31313A31323A303100446563EE
:1002F00020323320323032320011007F9629000143
:10030000007F9628003A0155C0021010C10141C576
:100310000400228040360168B00100B102B011B47F
:100320000102B60302023BB701C63A0155F704A920
:10033000512C82B701C6E808408A00002919A5336C
:10034000C0020D0DC1024300C20100C504004800F7
:1003500048B40100B60302023BE00F0F211C0B0E54
:1003600008499838091103141000E10F0F2F2B0CC6
:100370000E06477637071104231E00B00100B304B0
:1003800002000000B40100D003074218D1030007A7
:1003900010D2020102D3020102D4020102C00512EE
:1003A0003B000211C103101088C50103C60102C839
:1003B0000C003236450616377577540C00CC010018
:1003C000F603010100CF03008130ED0464031281C4
:1003D000E803851078CB05392C003402F70120EAB8
:1003E000020000B00100B102001BB40100C00121F5
:1003F000C10111C5023F3CC701B5360148F20100F9
:10040000260101E00F0F26240B0E0954A8460C17F5
:10041000090F0700E10F00191B0410072A473903D1
:10042000060630380F360100B80101C0010EB001D8
:1004300000C10410100202C006003500000102C510
:100440000104D2020104CA0100EA0180B903FF835A
:10045000577F967F96B60125C0065050013C1E0876
:10046000B4070240002A2A0D787F01F20B1616030A
:100470000808080810041616FD03110235B2050C11
:100480000C003333B70135BB012BC00104C202019C
:10049000FFC30111C40120C6010FD002A4A1E00EC8
:1004A000D000050E150D3743470915121619E10E38
:1004B000D000050D0C062D44400E1C1816193A01EB
:1004C000557F0A06000700B1020012B40102B6040B
:1004D00000202700CA0101CB0103C001137F14C50E
:1004E00001CCC60100C70104C80103CC0106CD013F
:1004F0001CF9021515F3030A020AF603011000FAAB
:1005000000FB00E2031E0254E001017F0AE0010348
:100510007F0A01007F64E60303FFFFB007240003A6
:100520001F01DF00B40803A0002E30000F00B60743
:10053000020D0010100008BA010FB8020701F00107
:10054000007F01280011007F642900BE0606F0012B
:10055000F00000D0010DB00103E2013FC00122E232
:100560000100B00100C0010AB0010000000000005D
:100570000000000000000000000000FFFF0F00006E
:10058000040062080008080003000C01030B5A0273
:1005900003060903031710040300230503001706CD
:1005A0000309630703090C08030C10090332221026
:1005B00000160011000101120000001300010000EC
:1005C000013003010137020301000D8002006102C6
:1005D00001B0C1FFFF320001000001020000010371
:1005E000003010090001000C000000900000800F96
:1005F000000000100200001102EF001202000013C0
:10060000028F01000500000105000002055F0001E6
:1006100004010004040000FFFF320007000001FF96
:10062000FF32000002000001020000000000000094
:100630000000000000000000000100A4000100FF15
:10064000FF0A00600000270800080830001402318B
:10065000001537320004063300160E34001122351F
:1006600000001536000785370007143800031439D9
:10067000002000900015001000100411003702291E
:100680000046002A004600070000001200890113FE
:10069000000011FFFF96001200B9010100000102E5
:1006A00000000203003010090001000A0000000DE4
:1006B0000000000E003000610001006A00000080B0
:1006C0000000008100000082005F009200000193A2
:1006D000000107FFFF500007000001E500F078016E
:1006E00000000102000002030030100400000005B9
:1006F00000000008000702090000000A0000000CCA
:100700000000000D0000000F0000001000000011AC
:10071000000700120000001300000007000100FFA6
:10072000FFC8001000901611002702FFFF320012D0
:10073000000D00FFFF32001300001229000A002BF9
:10074000000D00FFFF3200200000002100000030FB
:1007500000000031000404320003003500050436B7
:100760000008083700070438000303390007073C76
:100770000004053D00080860000027610001006AD0
:100780000000008000000081000000820000008363
:10079000000000840000008500000090001000921E
:1007A00000000007003301E50000800000010001A7
:1007B00000000102000007030030100400000008E0
:1007C000000202090000000A0000000C0000000DF9
:1007D0000000000F000000100000001100070012D0
:1007E00000000013000000FFFF32001000B01711DE
:1007F000000700FFFF0A0012003A01FFFF0A001382
:1008000000001A29000C00FFFF0A00300000003130
:1008100000050532000400350006003600070737E2
:1008200000050138000200390007073C0004073DBD
:10083000000708600000A7610001006A00000021B5
:100840000000002000000080000000810000008205
:10085000000000830000008400000085000000907C
:100860000010009200000093000300950010019713
:100870000000009800000007007301FFFF32000134
:100880000000010200000703003010080002030905
:100890000000000A0008001000000011000500120E
:1008A00000000013000000FFFF64001000B012FF02
:1008B000FF320011000700FFFF320012008C00130E
:1008C00000001729002000FFFF3200300000003137
:1008D000000601320001013500060136000302372F
:1008E00000000038000707390004023C0006013D03
:1008F000000301600000A7610001009000300007C4
:10090000003301FFFF3200150030009A0010001183
:10091000002000100028341200020013003810FFDD
:10092000FF280012001200FFFF28001000203413DF
:10093000004530FFFF460030000000310002043265
:1009400000070333000403340004003500010436BB
:1009500000070737000503380010063900100601AC
:100960000000010200000303003010080008080A1C
:10097000000800600000276100010090003E019225
:1009800000000193000001A0000030A30010000748
:1009900000010007002100070023000700330007C3
:1009A00000330111001A001200213113006C0014F1
:1009B00000494210000008FFFF0A0011001A01FF61
:1009C000FF0A0011001A03FFFF0A0011001A07FFB7
:1009D000FF0A0011001A0FFFFF0A0011003A0FFF73
:1009E000FF1E000100280102000001030030100773
:1009F000001210080003030B0000110C0000000F90
:100A0000000118150020005000010151000306529A
:100A10000008045300000054000506550006045663
:100A2000000303570003035800100059000010078B
:100A3000001200FFFF280007001300070017002D19
:100A4000204E6F20746F7563682068616E646C65FA
:100A50007220656E61626C65640A002D20496E69C2
:100A60007420646973706C61792068616E646C6570
:100A700072205B25735D204F4B0A00475549736C0C
:100A80006963652076657273696F6E205B25735D9F
:100A90003A0A0000002100240027002A002D00301F
:100AA00000330001010000040107010A01000022D7
:100AB00000250028002B002E003100340002010028
:100AC00000050108010B01050505050705080808D3
:100AD00008020202020A0A080804040404010101CF
:100AE00001010101010303030303030303040707D7
:100AF000070C0C0C0C0C0C0C0C0202020206060675
:100B000006060606060B0B0B0B0B0B0B0B0102105C
:100B10002020080810204010204080020102010817
:100B200004020101020408102040808040201008C7
:100B30000402018004020180402010080402010820
:100B40000402010102040810204080010204081080
:100B500020408000000A0B02090C0D0E0807030458
:100B60000100000000000000000000000000000084
:100B70000000000000000000000000000000001263
:100B80001110000000000000000000000000000044
:100B900000000000000000000000000000003E5BBC
:100BA0004F5B3E3E6B4F6B3E1C3E7C3E1C183C7EBA
:100BB0003C181C577D571C1C5E7F5E1C00183C189F
:100BC00000FFE7C3E7FF0018241800FFE7DBE7FF9B
:100BD00030483A060E2629792926407F0505074028
:100BE0007F05253F5A3CE73C5A7F3E1C1C08081CE9
:100BF0001C3E7F14227F22145F5F005F5F06097F27
:100C0000017F006689956A606060606094A2FFA2BF
:100C10009408047E040810207E201008082A1C086E
:100C2000081C2A08081E101010100C1E0C1E0C3078
:100C3000383E3830060E3E0E060000000000000070
:100C40005F00000007000700147F147F14242A7F30
:100C50002A122313086462364956205000080703FD
:100C600000001C2241000041221C002A1C7F1C2A7B
:100C700008083E08080080703000080808080800CE
:100C80000060600020100804023E5149453E0042C9
:100C90007F400072494949462141494D3318141299
:100CA0007F1027454545393C4A49493141211109C1
:100CB000073649494936464949291E0000140000B3
:100CC00000403400000008142241141414141400CD
:100CD0004122140802015909063E415D594E7C1219
:100CE00011127C7F494949363E414141227F4141B1
:100CF000413E7F494949417F090909013E4141512E
:100D0000737F0808087F00417F41002040413F0178
:100D10007F081422417F404040407F021C027F7FB9
:100D20000408107F3E4141413E7F090909063E41CA
:100D300051215E7F09192946264949493203017F1D
:100D400001033F4040403F1F2040201F3F403840AC
:100D50003F631408146303047804036159494D4345
:100D6000007F4141410204081020004141417F04BD
:100D700002010204404040404000030708002054A4
:100D80005478407F28444438384444442838444404
:100D9000287F385454541800087E090218A4A49CD3
:100DA000787F0804047800447D40002040403D00E6
:100DB0007F1028440000417F40007C047804787C48
:100DC000080404783844444438FC182424181824AF
:100DD0002418FC7C08040408485454542404043F98
:100DE00044243C4040207C1C2040201C3C4030409F
:100DF0003C44281028444C9090907C4464544C44CB
:100E0000000836410000007700000041360800026B
:100E1000010204023C2623263C1EA1A161123A4095
:100E200040207A385454555921555579412254540B
:100E30007842215554784020545579400C1E527206
:100E400012395555555939545454593955545458E3
:100E50000000457C410002457D420001457C407D0B
:100E60001211127DF0282528F07C5455450020549D
:100E7000547C547C0A097F4932494949323A4444F6
:100E8000443A324A4848303A4141217A3A42402075
:100E900078009DA0A07D3D4242423D3D4040403D06
:100EA0003C24FF2424487E4943662B2FFC2F2BFF34
:100EB0000929F620C0887E09032054547941000096
:100EC000447D413048484A32384040227A007A0A0C
:100ED0000A727D0D19317D2629292F2826292929D5
:100EE0002630484D40203808080808080808083807
:100EF0002F10C8ACBA2F102834FA00007B0000086D
:100F0000142A142222142A14085500550055AA55F3
:100F1000AA55AAFF55FF55FF000000FF0010101052
:100F2000FF00141414FF001010FF00FF1010F01049
:100F3000F0141414FC001414F700FF0000FF00FF6D
:100F40001414F404FC141417101F10101F101F1495
:100F500014141F00101010F0000000001F101010DB
:100F6000101F10101010F010000000FF10101010D3
:100F70001010101010FF10000000FF140000FF0000
:100F8000FF00001F10170000FC04F41414171017C2
:100F90001414F404F40000FF00F7141414141414CF
:100FA00014F700F7141414171410101F101F141442
:100FB00014F4141010F010F000001F101F000000B7
:100FC0001F14000000FC140000F010F01010FF10BF
:100FD000FF141414FF141010101F00000000F01074
:100FE000FFFFFFFFFFF0F0F0F0F0FFFFFF00000059
:100FF0000000FFFF0F0F0F0F0F3844443844FC4A26
:101000004A4A347E02020606027E027E0263554987
:1010100041633844443C04407E201E2006027E0288
:101020000299A5E7A5991C2A492A1C4C7201724C09
:10103000304A4D4D303048784830BC625A463D3ECB
:10104000494949007E0101017E2A2A2A2A2A44446C
:101050005F444440514A444040444A51400000FFEC
:101060000103E080FF000008086B6B08361236248D
:1010700036060F090F0600001818000000101000B7
:101080003040FF0101001F01011E00191D17120051
:101090003C3C3C3C00000000004552524F523A207C
:1010A000476574584461746146726F6D5265662875
:1010B000547970652025642C204C696E6520256468
:1010C0002920705844617461206973204E554C4C3E
:1010D0000A004552524F523A204765745844617491
:1010E0006146726F6D52656628547970652025647B
:1010F0002C204C696E652025642920456C656D2087
:1011000074797065206D69736D617463680A004558
:1011100052524F523A204765745844617461467286
:101120006F6D52656628547970652025642C204CBB
:10113000696E65202564292070456C656D20697392
:10114000204E554C4C0A004552524F523A204765AA
:1011500074584461746146726F6D526566285479A3
:1011600070652025642C204C696E6520256429203B
:1011700070456C656D526566206973204E554C4C08
:101180000A00035CBF6B11241FBECFEFD1E2DEBFAC
:10119000CDBF00E00CBF25E1A0E2B5E001C01D928B
:1011A000A33DB207E1F715E0A0E0B2E0E4E8F5EE18
:1011B00000E00BBF02C007900D92A032B107D9F733
:1011C00018E0C2ECD8E000E006C021970109802FAA
:1011D000FE010E943A6DC13CD10780E00807A9F7E3
:1011E0000E944B5D0C94B0720C940000FC01A09125
:1011F000E013B091E113892BD1F420917C1330914D
:101200007D1380917E1390917F1314961C921E92F1
:10121000139716961C921E92159718963C932E9330
:1012200017971A969C938E93199781E0089598E0EA
:10123000139601900D929A95E1F7F7CF10920E1444
:1012400088E0E6E9F2E0AFE0B4E101900D928A9522
:10125000E1F708952091D4143091D514009789F0C6
:10126000232B51F42091C9143091CA142A5F3F4FA7
:101270003093CA142093C9149093D5148093D41436
:101280000895232BC9F32091C9143091CA14265014
:101290003109EECF2F923F924F925F926F927F92E1
:1012A0008F929F92AF92BF92CF92DF92EF92FF9276
:1012B0000F931F93CF93DF93CDB7DEB76D970FB624
:1012C000F894DEBF0FBECDBF7A8769875C874B87F6
:1012D0003E872D87188B0F87FB0111821082FA0140
:1012E00011821082F80111821082F901118210829C
:1012F0002090D4143090D5142091D2142C83F090E7
:10130000CF142F2D30E0388F2F8B46E0F49E9001C4
:1013100011243E832D83A090C314B090C414E09098
:10132000D014E8E0EE9E6001112491012C5F3F4F44
:101330003A8B298B2E5F3F4F3C8B2B8B24503109EE
:101340003A8F298F2A5F3F4F3B832A8398878F8369
:1013500044244A94542CAFEFBFEF8FEF9FE79C8F4C
:101360008B8F0FEF1FE770E060E050E040E0EF810F
:10137000F8858191F887EF83882309F4C0C0211490
:10138000310409F487C08A3041F4EA81FB818491F9
:101390008E9D600D711D1124E8CF8D3041F3E989D8
:1013A000FA899491EB89FC892491891700F3281715
:1013B000F0F2E98DFA8D25913491891BF7E08F9F2A
:1013C000200D311D1124F9013296849189833196C3
:1013D00094919D8B319684918E8B319684912A5F66
:1013E0003F4FF901F491FD8F2C812223F1F03981D7
:1013F000632E712C680E711C87FD7A942F89388DAD
:10140000629E4001639E900C729E900C1124840E8B
:10141000951EA814B9044CF4EA81FB8194919E9D19
:10142000600D711D112450E040E02F2D382F320344
:10143000C0011124840F951F2E2D3D8D3203F00124
:1014400011249F01260F371F801791070CF48C0180
:10145000EB8DFC8D2E173F0714F43C8F2B8FF981F9
:10146000FF9D800D911D11240197A817B9070CF459
:10147000DC018D898E9D200D311D112421503109F3
:10148000421653060CF429019E899F9D400D511D63
:1014900011246DCF8A3019F46C0D7D1D66CF8D300F
:1014A00009F465CF2C81222359F08D819E81840F10
:1014B000951FA816B90624F46C0D7D1D50E040E080
:1014C0002D813E81240F351FC9010197A817B90747
:1014D0000CF4DC01C601860F971F019748165906C8
:1014E0000CF42C01401751070CF48A018B8D9C8D54
:1014F0006817790714F47C8F6B8FA90138CFA01778
:10150000B1075CF0E985FA8511830083A01BB10B5C
:101510001196ED85FE85B183A0832B8D3C8D4216FF
:1015200053066CF0EB85FC8531832083421A530A05
:10153000FFEF4F1A5F0AEF85F889518240826D965E
:101540000FB6F894DEBF0FBECDBFDF91CF911F91D4
:101550000F91FF90EF90DF90CF90BF90AF909F9052
:101560008F907F906F905F904F903F902F90089555
:10157000FC01892BF1F080819181826091838083CD
:101580002281338120313105A1F084819581803120
:10159000910579F02133384F29F480E190E093836D
:1015A000828308958133984F21F480E190E0958300
:1015B000848308958B988A9820910201277820933C
:1015C0000201A5982EB1277C2EB970910201292F16
:1015D00030E0F901A5E0EE0FFF1FAA95E1F7E076F4
:1015E000E72BE09302017EB1F901EE0FFF1FEE0F32
:1015F000FF1FE073E72BEEB974B3F901EE0FFF1F85
:10160000E072E72BE4BB7EB1F901F595E795F5951E
:10161000E795E870E72BEEB970910201E3E03595AC
:101620002795EA95E1F72871272B209302018998E5
:10163000899A20910201277820930201A5982EB162
:10164000277C2EB9709102019C01F5E0880F991F4B
:10165000FA95E1F78076872B809302017EB1C9016C
:10166000880F991F880F991F8073872B8EB974B3C9
:10167000C901880F991F8072872B84BB7EB1C90175
:1016800095958795959587958870872B8EB98091CC
:101690000201F3E035952795FA95E1F72871282B9B
:1016A000209302018998899A8A9AFA01615008F474
:1016B0003EC0819190910201977890930201A59884
:1016C0009EB1977C9EB94091020190E09C0155E04B
:1016D000220F331F5A95E1F72076242B2093020125
:1016E0004EB19C01220F331F220F331F2073242B76
:1016F0002EB944B39C01220F331F2072242B24BB2C
:101700004EB19C0135952795359527952870242B4A
:101710002EB92091020133E0959587953A95E1F72E
:101720008871822B809302018998899ABFCF8B9A06
:1017300008958B988A98E2E0F1E020812778208351
:10174000A5982EB1277C2EB9A081292F30E0A901C0
:10175000B5E0440F551FBA95E1F740764A2B408318
:10176000AEB1A901440F551F440F551F40734A2BBA
:101770004EB9A4B3A901440F551F40724A2B44BB74
:10178000AEB1A901559547955595479548704A2B97
:101790004EB9408153E0359527955A95E1F7287168
:1017A000242B20838998899A208127782083A598E3
:1017B0002EB1277C2EB940819C01A5E0880F991F8E
:1017C000AA95E1F78076842B80834EB1C901880FFA
:1017D000991F880F991F8073842B8EB944B3C90158
:1017E000880F991F8072842B84BB4EB1C9019595D7
:1017F0008795959587958870842B8EB98081B3E005
:1018000035952795BA95E1F72871282B208389987B
:10181000899A8A9A808187788083A5988EB1877CFF
:101820008EB94081872F90E09C0155E0220F331F35
:101830005A95E1F72076242B20834EB19C01220F8C
:10184000331F220F331F2073242B2EB944B39C0166
:10185000220F331F2072242B24BB4EB19C013595DF
:101860002795359527952870242B2EB92081A3E044
:1018700095958795AA95E1F78871822B8083899841
:10188000899A808187788083A5988EB1877C8EB96C
:101890004081CB019B01B5E0220F331FBA95E1F7E0
:1018A0002076242B20834EB19B01220F331F220F61
:1018B000331F2073242B2EB944B39B01220F331FF7
:1018C0002072242B24BB4EB19C013595279535956C
:1018D00027952870242B2EB92081A3E09595879514
:1018E000AA95E1F78871822B80838998899A8B9ACF
:1018F0000895FC01262F358D868D82958170982F55
:101900009627692F70E072A361A330FF0CC0821389
:1019100007C080E290E050E040E060E00C94DA0A1A
:1019200081E290E0F8CF878D90A1833927E7920775
:1019300041F058F4843521E0920791F080329445CB
:10194000C1F4626081E094E012C0863223E992071C
:10195000C1F3893025EB9207A1F38532924949F40E
:10196000660F771F660F771F636187E090E00C9426
:10197000990B81E690E0FBCF8F929F92AF92BF923E
:10198000CF92DF92EF92FF920F931F93CF93DF934B
:1019900000D01F92CDB7DEB77C014B015A0169011F
:1019A000FC01878D90A18632954151F4F70186891B
:1019B00080FF06C0C801841B950B81F50F5F1F4F88
:1019C000F701858D80FF31C085A599828A82DB82EF
:1019D000CC82AE014F5F5F4F64E090E00E94DA0A74
:1019E000F70181A9B982AA821B830C83AE014F5FE4
:1019F0005F4F64E090E00E94DA0A0F900F900F9022
:101A00000F90DF91CF911F910F91FF90EF90DF909A
:101A1000CF90BF90AF909F908F9008952617370773
:101A200079F6C80ED91E8A01CBCFB40187A190A543
:101A30000E94990BB501F70181A592A50E94990B0F
:101A4000C814D90419F40A151B05B9F2F701858DDC
:101A500085FF08C0868980FF1EC0102F0027A02A9E
:101A6000B12A8501B401F70185A596A50E94990BBD
:101A7000B501F70181A992A90E94990BB601F7015E
:101A800087A590A90E94990BB801F70183A994A991
:101A90000E94990BB2CFDC2CCC248C289D286401A9
:101AA000E1CF2F923F924F925F926F927F928F92EF
:101AB0009F92AF92BF92CF92DF92EF92FF920F93DD
:101AC0001F93CF93DF9300D01F921F92CDB7DEB745
:101AD0009D838C8380910411882349F0C701880F6E
:101AE000991F8E739927E1ECEE22E82AF92A37FF35
:101AF00005C0620F731F319521953109260F371FDD
:101B000077FF02C070E060E0EC81FD818085918507
:101B1000281739070CF4C9016C01C61AD70A17FF38
:101B200005C0400F511F119501951109040F151F94
:101B300057FF02C050E040E0EC81FD8122853385F3
:101B4000021713070CF498015901A41AB50A890168
:101B5000015011099C01215031098C819D810E9405
:101B6000BC0C8B988A98EC81FD8153A544A580918B
:101B70000201877880930201A5988EB1877C8EB987
:101B800060910201842F90E09C01A5E0220F331F99
:101B9000AA95E1F72076262B209302016EB19C01D5
:101BA000220F331F220F331F2073262B2EB964B34D
:101BB0009C01220F331F2072262B24BB6EB19C0187
:101BC00035952795359527952870262B2EB9209188
:101BD000020133E0959587953A95E1F78871822B5C
:101BE000809302018998899A809102018778809375
:101BF0000201A5988EB1877C8EB960910201852F74
:101C0000942F9C0145E0220F331F4A95E1F720767F
:101C1000262B209302014EB19C01220F331F220F6D
:101C2000331F2073242B2EB944B39C01220F331F82
:101C30002072242B24BB4EB19C01359527953595F8
:101C400027952870242B2EB920910201E3E0959569
:101C50008795EA95E1F78871822B80930201899834
:101C6000899A8A9ACA14DB042CF09A2D8B2D56017E
:101C7000C92ED82E2F2D30E0890185E0000F111FCD
:101C80008A95E1F70076C901880F991F880F991F7F
:101C9000182F1073C901880F991FB82FB072C9018E
:101CA0009595879595958795982F987073E03595BC
:101CB00027957A95E1F7822F8871A701E5E0440F17
:101CC000551FEA95E1F740769701220F331F220F47
:101CD000331F522F5073B701660F771F6072970141
:101CE0003595279535952795722F78709701E3E004
:101CF00035952795EA95E1F7A22FA8712F2D287F1A
:101D000030E04901880C991C880C991CF82DF0735F
:101D1000F9834901880C991CE82DE072EA83490196
:101D20009594879495948794F82DF870FB83E3E05D
:101D300035952795EA95E1F7E22FE8712E2E970168
:101D4000F3E036952795FA95E1F72C7F30E04901CD
:101D5000880C991C880C991CF82DF0733F2E2901D2
:101D6000440C551CE42DE0724E2E49019594879445
:101D700095948794F82DF8705F2EF3E035952795AC
:101D8000FA95E1F7E22FE8716E2EEE0CEE0CEE0CF8
:101D9000F12C9701220F331F220F331FF22FF07304
:101DA0007F2E9701220F331F2072F701F595E795DB
:101DB000F595E795E870F3E0F594E794FA95E1F787
:101DC0003E2D3871E32E1C141D040CF0ABC0309175
:101DD00003114501332309F463C0309102013778C0
:101DE00030930201A5983EB1377C3EB93091020193
:101DF000309302013EB1F9813F2B3EB934B3FA81F1
:101E00003F2B34BB3EB1FB813F2B3EB930910201E9
:101E10003229309302018998899A309102013778EA
:101E200030930201A5983EB1377C3EB93091020152
:101E3000309302013EB133293EB934B3342934BB67
:101E40003EB135293EB93091020136293093020165
:101E50008998899A30910201377830930201A598C8
:101E60003EB1377C3EB930910201309302013EB160
:101E700037293EB934B3322B34BB3EB13E2B3EB989
:101E8000309102013E29309302018998899A31E00C
:101E9000831A910809F0A1CFF1E0CF1AD10893CFAE
:101EA00030910201377830930201A5983EB1377C1A
:101EB0003EB930910201302B309302013EB1312BFB
:101EC0003EB934B33B2B34BB3EB1392B3EB93091D4
:101ED0000201382B309302018998899A30910201CE
:101EE000377830930201A5983EB1377C3EB93091E6
:101EF0000201342B309302013EB1352B3EB934B38D
:101F0000362B34BB3EB1372B3EB9309102013A2B10
:101F1000309302018998899AF1E08F1A910809F0AB
:101F2000BFCFBACF8B9AEC81FD81858D80FF0AC02F
:101F3000878D90A186329541B1F4EC81FD8186892F
:101F400080FF11C0EC81FD810285138501501109CC
:101F5000208531852150310950E040E070E060E09B
:101F6000CF010E94BC0C0F900F900F900F900F901C
:101F7000DF91CF911F910F91FF90EF90DF90CF9065
:101F8000BF90AF909F908F907F906F905F904F9099
:101F90003F902F900895EF92FF920F931F93CF934E
:101FA000DF937C01E90177FD4DC157FD4BC1FC0179
:101FB00080859185681779070CF044C182859385E7
:101FC000481759070CF03EC180910411882341F055
:101FD000C901880F991F8E739927C17CC82BD92BF3
:101FE0008A019B01C7010E94BC0C809103118823C8
:101FF00009F42FC18B988A98F70143A554A58091C5
:102000000201877880930201A5988EB1877C8EB9F2
:1020100060910201852F90E09C0175E0220F331F33
:102020007A95E1F72076262B209302016EB19C0170
:10203000220F331F220F331F2073262B2EB964B3B8
:102040009C01220F331F2072262B24BB6EB19C01F2
:1020500035952795359527952870262B2EB92091F3
:102060000201B3E095958795BA95E1F78871822BC7
:10207000809302018998899A8091020187788093E0
:102080000201A5988EB1877C8EB960910201CA01C8
:102090009C0115E0220F331F1A95E1F72076262BBD
:1020A000209302014EB19C01220F331F220F331FD8
:1020B0002073242B2EB944B39C01220F331F2072AE
:1020C000242B24BB4EB19C0135952795359527953A
:1020D0002870242B2EB92091020173E095958795E5
:1020E0007A95E1F78871822B809302018998899A09
:1020F0008A9A80910201877880930201A5988EB117
:10210000877C8EB9209102018D2F887F90E02093EB
:1021100002014EB19C01220F331F220F331F207387
:10212000242B2EB944B39C01220F331F2072242B81
:1021300024BB4EB19C013595279535952795287080
:10214000242B2EB920910201B3E095958795BA957D
:10215000E1F78871822B809302018998899A809196
:102160000201877880930201A5988EB1877C8EB991
:1021700020910201CE01D3E096958795DA95E1F79B
:102180008C7F90E0209302014EB19C01220F331FFF
:10219000220F331F2073242B2EB944B39C01220F2E
:1021A000331F2072242B24BB4EB19C0135952795FB
:1021B000359527952870242B2EB92091020163E0D4
:1021C000959587956A95E1F78871822B8093020136
:1021D0008998899A80910201877880930201A59855
:1021E0008EB1877C8EB980910201CC0FCC0FCC0FC1
:1021F000D0E0809302012EB1CE01880F991F880F85
:10220000991F8073822B8EB924B3CE01880F991F3A
:102210008072822B84BB2EB1CE01959587959595C2
:1022200087958870822B8EB980910201A3E0D595A5
:10223000C795AA95E1F7C871C82BC0930201899888
:10224000899A8B9ADF91CF911F910F91FF90EF9018
:102250000895BE01F70183A594A5DF91CF911F9149
:102260000F91FF90EF900C94990BEF92FF920F93C8
:102270001F93CF93DF9300D000D000D01F92CDB733
:10228000DEB77C01862F8370F701868B962F9170C5
:1022900060FFE3C026813781F701318720879923CA
:1022A00009F4DEC024813581F7013387228782302B
:1022B00009F4DBC0833009F4DAC0813009F4D3C0FB
:1022C00088E48A87F701858D968D90FF03C02A8563
:1022D00020582A8791FF04C02A8530E423272A87C3
:1022E00093FF04C02A8538E023272A87F701278D2A
:1022F00030A180FF00C12431F8E63F0709F0B9C0E2
:102300009A85892F88728A871F82892F8595807484
:10231000282F2260892F90E09595879580729927C4
:10232000822B88878BE38987AE01495F5F4F63E02B
:1023300086EB90E00E94DA0A2AE230E0F70130A74B
:1023400027A38BE290E092A781A74CE250E054A72C
:1023500043A736A725A730AB27A792AB81AB94AB99
:1023600083ABAE01465F5F4F61E086E390E00E9481
:10237000DA0A8A8590E0F70194A383A3F70186899E
:1023800080FF1CC0858D968D92FD18C087A190A5F9
:1023900021A532A530A727A392A781A785A596A539
:1023A00021A932A936A725A792AB81AB87A590A911
:1023B00023A934A930AB27A794AB83ABF7010285DF
:1023C000138501501109208531852150310950E0D4
:1023D00040E070E060E0C7010E94BC0CF70166813C
:1023E0007781878D90A120E08732F3E99F0709F478
:1023F00020E2F701358D30FF39C119821A827B83C3
:102400006C831D822E83AE014F5F5F4F66E083E3D6
:1024100090E00E94DA0A19821A82AE014F5F5F4F84
:1024200062E087E390E00E94DA0AF701858D80FF81
:1024300007C050E040E060E083E190E00E94DA0AEB
:102440002A960FB6F894DEBF0FBECDBFDF91CF91B5
:102450001F910F91FF90EF900895248135811CCF3B
:102460002681378121CF88E22CCF88E92ACF88EFD7
:1024700028CF273243E9340789F41F8281E3888714
:102480008A85859585958595859588708987AE011E
:10249000495F5F4F63E080EC90E04CCF233689E1E9
:1024A000380749F02138E4E93E0729F02131F5E108
:1024B0003F0709F041CF8A8587FF02C081608A8784
:1024C0008A8586FF02C082608A878A858F73233659
:1024D00049E1340731F0213884E9380721F48A854D
:1024E0008F728A8729CF2131354109F025CF8A851E
:1024F0008F7E806CF6CF6A85862F062E000C990B96
:102500002339F7E73F0751F0A8F52435E1E03E070E
:1025100009F45CC02032F4E53F07A1F540E052E049
:10252000F70150A747A341E052E052A741A742E07C
:1025300052E054A743A740E152E056A745A741E126
:1025400052E050AB47A742E152E052AB41AB43E10E
:1025500052E054AB43AB882790782632F3E93F072B
:1025600021F02032344509F071C067FD846060E0DD
:1025700071E36EC0263243E9340781F22930E5EB7E
:102580003E0761F220E230E0F70130A727A321E205
:1025900030E032A721A722E230E034A723A720E5CC
:1025A00030E036A725A721E530E030AB27A722E5AC
:1025B00030E032AB21AB23E530E034AB23ABBC01E0
:1025C00066277078776280E690E046C027E330E0C7
:1025D000F70136A725A726E330E030AB27A729E38C
:1025E00030E032AB21AB28E330E034AB23AB20E268
:1025F00030E030A727A321E230E032A721A722E272
:1026000030E034A723A7F4E06F9FB00111246627C0
:102610007170882792708862682B792B81E090E036
:102620000E94990B8A85682F70E07595679575955E
:1026300067956870772783FD70616063F70174A305
:1026400063A383E090E00E94990B98CE60E072E66D
:10265000682B792B80E094E00E94990B6A85F4E066
:102660006F9FB001112466277170D8CF8339F7E7C7
:102670009F07D9F1F0F4803244E59407B1F1833833
:10268000E7E79E0731F184359140F1F4615071091B
:1026900081E390E00E94990B70E060E082E390E0BB
:1026A0000E94990B70E060E083E390E00E94990B38
:1026B000C7CE863223E99207C1F0893045EB9407F3
:1026C000A1F08532924911F3F70161A172A1626014
:1026D00003C0F70161A172A181E690E00E94990B0D
:1026E00070E060E08AE690E0E1CFF70161A172A1BD
:1026F000626081E094E00E94990B70E060E084E009
:1027000094E0D4CFEF92FF920F931F93DC011A96BF
:102710000D911C911B9718962D913C911997ED9155
:10272000FC9100A0F1A1E02D7B0150E040E070E0C1
:1027300060E019951F910F91FF90EF900895EF922F
:10274000FF920F931F93DC01ED91FC9100A0F1A18A
:10275000E02D780101E010E019951F910F91FF9095
:10276000EF900895EF92FF920F931F93DC01ED918C
:10277000FC9100A0F1A1E02D7801890121E030E079
:1027800019951F910F91FF90EF9008950895FC0106
:102790006370668B8481958126813781613039F041
:1027A000633029F0918780873387228708953187A6
:1027B00020879387828708952F923F924F925F924E
:1027C0006F927F928F929F92AF92BF92CF92DF9241
:1027D000EF92FF920F931F93CF93DF93CDB7DEB7A6
:1027E0006A970FB6F894DEBF0FBECDBF9A8F898F60
:1027F0007A8369834A01D22E18870F833701BC2C54
:10280000DC0159962D913C915A972115310509F01B
:1028100015C118968D919C911997681779070CF03E
:10282000D7C11A968D919C91481759070CF0D0C1C9
:102830004C2C512CB6E0CB9E600D711D11247C8771
:102840006B87161617060CF0C3C1EA2DF0E0FA8765
:10285000E98793E0EE0FFF1F9A95E1F7F88BEF877A
:10286000CF01840F951F181619060CF0B1C1A98D60
:10287000BA8D58968C91811104C0BFEABD1508F439
:10288000D394A98DBA8DED91FC9111970284F385B3
:10289000E02DCD011995B5E0DB9EC0011124E98141
:1028A000FA81FC83EB83312C212C9C012756344F79
:1028B000388F2F8B4A2D50E05E8B4D8BEF89F88D32
:1028C000E20DF31D44919E828D82D12CC12C698131
:1028D0007A81620D731D7A8B698B842F90E09C8BBB
:1028E0008B8BE98DFA8DA081B18140FF82C0F1E030
:1028F000BF126FC0AF126DC01C96ED91FC912F817D
:102900003885A4014C0D5D1D69897A89898D9A8D60
:102910001995EB89FC89F595E7954E2F5FEFC51A60
:10292000D50A6D817E818D899E89680F791F7E838E
:102930006D8398E0C916D10481F6AFEF2A1A3A0ADE
:10294000EB81FC81E40DF51DFC83EB83F5E02F1694
:10295000310409F0B3CF2F81388526153705B9F03A
:10296000A98DBA8DED91FC91B1E0BB1257C0AB12AD
:1029700055C069817A816B5F7F4F0088F189E02DB6
:10298000830128E030E0A401898D9A8D1995A98DE5
:10299000BA8DED91FC9111970688F789E02DCD0154
:1029A0006A960FB6F894DEBF0FBECDBFDF91CF9110
:1029B0001F910F91FF90EF90DF90CF90BF90AF905D
:1029C0009F908F907F906F905F904F903F902F904F
:1029D00019941E96ED91FC91EF80F88409851A8573
:1029E00092014D815E816B817C81898D9A8D1995D3
:1029F00090CF2F8138852615370509F48ACF31E02D
:102A0000B31207C0A31205C01C96ED91FC9193016F
:102A100078CF1E96ED91FC917301E0CF6B857C859C
:102A2000641975090684F785E02D73010F851889EF
:102A30009201A401898D9A8D1995A9CFF901349637
:102A40009491329745915491D91AB7E0DB9E400D8D
:102A5000511D1124F901259134913C8B2B8BFA01E6
:102A600025903490FA013296749031963491398BD6
:102A7000329664903196449041E04C1518F04A1516
:102A800008F07FC0662D062C000C770B7C836B83CF
:102A9000842D042C000C990B9E838D83A98DBA8DF7
:102AA000ED91FC9111970284F385E02DCD011995EC
:102AB000512CD12CC12CEA2DF0E0FA87E9872B2D7F
:102AC00030E03C872B87A401440D511D47FC5A95EB
:102AD000588F4F8B69817A81660D711D67FC7A95DD
:102AE0007E876D877989C71608F051CF2C2D30E08D
:102AF0004D815E81420F531FA985BA854A9FC0014F
:102B00004B9F900D5A9F900D1124FC01E80DF91D6B
:102B1000F88BEF87852D612C4F89588D420F531FFD
:102B20005E8B4D8B671408F050C044244394480ECC
:102B3000877041F4C1010196EB89FC89E20DF31D18
:102B4000D4901C01D7FE19C0A98DBA8DED91FC91CE
:102B5000662D70E0B1E0BB1219C0AB1217C02D8515
:102B60003E85620F731F0484F585E02D2F81388523
:102B70004D895E89898D9A8D1995DD0C6394842D1C
:102B8000D1CF1E821D821C821B8288CF4B815C812B
:102B9000640F751FAB85BC856A9FC0016B9F900D4C
:102BA0007A9F900D112469817A81680F791F0684BC
:102BB000F785E02DEF80F88409851A859D014F8502
:102BC0005889898D9A8D1995D8CF570CC3948ACF7F
:102BD0006A960FB6F894DEBF0FBECDBFDF91CF91DE
:102BE0001F910F91FF90EF90DF90CF90BF90AF902B
:102BF0009F908F907F906F905F904F903F902F901D
:102C000008958F929F92AF92CF92EF92FF920F937F
:102C10001F93CF93DF93EC01262F898D9A8D009718
:102C200009F051C06A30D1F41D861C868D8948E0B8
:102C3000849F900111248E859F85820F931F9F870B
:102C40008E8781E090E0DF91CF911F910F91FF90EF
:102C5000EF90CF90AF909F908F9008956D3089F353
:102C6000CC88AD888F898823C1F08C859D8536E01E
:102C7000C39E800D911D1124488559854817590719
:102C800064F44E855F851D861C8638E0A39EC001D6
:102C90001124840F951F9F878E87EA88FB880889F7
:102CA00019894E855F856C857D85CE010E94DC1378
:102CB0002C898C859D8546E0249F800D911D1124D3
:102CC0009D878C87BECF6A3069F41D861C86FC0107
:102CD0003896E4912D898E859F85E29F800D911D08
:102CE0001124ADCF6D3009F4ACCFFC013496349192
:102CF000631708F4A6CF3296E491E61708F4A1CF43
:102D0000FC01329685909490462F431B342F47E068
:102D1000349F800C911C1124F40132963491319629
:102D2000E4913323A9F1EE2399F1CC88F40135968F
:102D3000E491AD884F89442301F10E2E000CFF0B66
:102D4000E30FF11DCE9EA001CF9E500D11246C8586
:102D50007D85460F571F68857985641775076CF464
:102D60004E855F851D861C86FC013896E491AE9EDB
:102D7000400D511D11245F874E87EA88FB88088922
:102D800019894E855F856C857D85CE010E94DC1397
:102D9000F4013496E4912C898C859D85E29F800D09
:102DA000911D11248DCF6F927F928F929F92AF923F
:102DB000BF92CF92DF92EF92FF920F931F93CF9328
:102DC000DF93EC016B015A0139014801E881F98177
:102DD0000284F385E02D1995E881F9810288F38951
:102DE000E02D87019301A501B601CE011995A5013A
:102DF000480D591D41505109E881F9810288F38934
:102E0000E02D9301B601CE011995E881F981008882
:102E1000F189E02D9401A501B601CE011995C60CEA
:102E2000D71CB60161507109E881F9810088F189E8
:102E3000E02D9401A501CE011995E881F98106885C
:102E4000F789E02DCE01DF91CF911F910F91FF9077
:102E5000EF90DF90CF90BF90AF909F908F907F903A
:102E60006F9019946F927F928F929F92AF92BF92C0
:102E7000CF92DF92EF92FF920F931F93CF93DF9346
:102E80005C01EB016A01490138018701DC01ED9128
:102E9000FC916217730719F5641675062CF0962DD0
:102EA000872D3A01C92ED82E9601261937092F5F92
:102EB0003F4F048CF58DE02DA301BE01C50119958E
:102EC000DF91CF911F910F91FF90EF90DF90CF9006
:102ED000BF90AF909F908F907F906F900895461510
:102EE000570591F42617370724F0892D4B01C22F7F
:102EF000D82F9E01281939092F5F3F4F068CF78D77
:102F0000E02DA601B401DACF0284F385E02D1995F6
:102F1000D501ED91FC910488F589E02D83019401A0
:102F2000A601BE01C5011995D501ED91FC91068858
:102F3000F789E02DC501DF91CF911F910F91FF908F
:102F4000EF90DF90CF90BF90AF909F908F907F9049
:102F50006F901994EF92FF920F931F93DC011A96D2
:102F60000D911C911B9718962D913C911997ED91FD
:102F7000FC9100A0F1A1E02D7B0150E040E070E069
:102F800060E019951F910F91FF90EF9008954F9277
:102F90005F926F927F928F929F92AF92BF92CF92E9
:102FA000DF92EF92FF920F931F93CF93DF936C0109
:102FB0002B015A0139014801DC01ED91FC91028499
:102FC000F385E02D1995E201640C751CD601ED9195
:102FD000FC91C615D7055CF40088F189E02D8701C6
:102FE0009401A501BE01C60119952196EFCF06886F
:102FF000F789E02DC601DF91CF911F910F91FF90CE
:10300000EF90DF90CF90BF90AF909F908F907F9088
:103010006F905F904F9019948F929F92AF92BF9252
:10302000CF92DF92EF92FF920F931F93CF93DF9394
:10303000EC015B014A016901E881F9810284F385B1
:10304000E02D199595012C0D3D1D21503109E88188
:10305000F9810488F589E02D78018401A401B50186
:10306000CE011995E881F9810688F789E02DCE0116
:10307000DF91CF911F910F91FF90EF90DF90CF9054
:10308000BF90AF909F908F9019948F929F92AF9224
:10309000BF92CF92DF92EF92FF920F931F93CF9345
:1030A000DF93EC015B014A0169017801E881F98154
:1030B0000284F385E02D1995C80CD91C86010150B6
:1030C0001109E881F9810488F589E02D9501A401B1
:1030D000B501CE011995E881F9810688F789E02DBF
:1030E000CE01DF91CF911F910F91FF90EF90DF9074
:1030F000CF90BF90AF909F908F9019940895EF92CA
:10310000FF920F931F93DC01ED91FC9100A0F1A1C0
:10311000E02D19951F910F91FF90EF9008950F9357
:103120001F93DC01ED91FC91068CF78DE02D199534
:103130001F910F9108950F931F93DC01ED91FC9166
:10314000048CF58DE02D19951F910F9108952F9204
:103150003F924F925F926F927F928F929F92AF9227
:10316000BF92CF92DF92EF92FF920F931F93CF9374
:10317000DF9300D000D000D01F921F92CDB7DEB7F2
:103180003C017E836D835B874A872F83280117016B
:1031900081E090E06C01C41AD50ACA01919581952D
:1031A00091099C01220F331F3A832983C80101969C
:1031B0009C838B83F12CE12C88248394912C9B019C
:1031C0002F5F3F4F398728878A859B85E816F90648
:1031D0000CF06DC0AA84BB84D7FC0CC05C0191E0EC
:1031E000A91AB10829813A812E5F3F4F3A8329837A
:1031F000C20ED31E3FEFE31AF30A82E0880E911C41
:10320000C80CD91CAE14BF0444F42A853B852A158A
:103210003B05D1F4BB86AA86D7CF9501220F331F79
:103220004D815E814A195B098F81813019F58B814F
:103230009C81280F391F8101B701660D771D8BEB2B
:1032400094E10E949B18E1CF9F81913029F5940170
:1032500022503109240D351D6A857B85660D771D49
:103260008101488559854E195F098BEB94E10E94D5
:103270009B18D0CF8B819C81280F391F8101B3010E
:103280006E197F098BEB94E10E949B182A853B8580
:103290002A153B0509F4BECF940122503109240DB3
:1032A000351DB3018A859B85681B790BD9CF2B9679
:1032B0000FB6F894DEBF0FBECDBFDF91CF911F9147
:1032C0000F91FF90EF90DF90CF90BF90AF909F90C5
:1032D0008F907F906F905F904F903F902F900895C8
:1032E000DC01ED91FC910084F185E02D19942F9281
:1032F0003F924F925F926F927F928F929F92AF9286
:10330000BF92CF92DF92EF92FF920F931F93CF93D2
:10331000DF9300D01F92CDB7DEB76C015B015C83F9
:103320004B8381E090E04C01841A950A2A01519464
:1033300041945108440C551CF12CE12C66246394F3
:10334000712C422F44704983522F52705A83822F1E
:103350008870282E2170322E4B815C81E416F50690
:103360000CF083C097FC09C0415051095C834B832A
:1033700052E0450E511C840C951C8FEFE81AF80A98
:1033800092E0690E711C860C971C49814423C1F0A0
:1033900098014B815C814A0D5B1DB6016E0D7F1D4E
:1033A0008BEB94E10E9470199801A5014E0D5F1DF1
:1033B0006B817C816C0D7D1D8BEB94E10E947019FB
:1033C0005A815523C9F09801A5018B819C81481B26
:1033D000590BB6016E0D7F1D8BEB94E10E947019A5
:1033E0009801A5014E195F096B817C816C0D7D1DD3
:1033F0008BEB94E10E9470192220C9F09801A5017D
:103400004E0D5F1DB6018B819C81681B790B8BEB88
:1034100094E10E94701998014B815C814A0D5B1DFB
:10342000B6016E197F098BEB94E10E94701933206D
:1034300009F492CF9801A5014E195F09B6018B815D
:103440009C81681B790B8BEB94E10E9470199801A9
:10345000A5018B819C81481B590BB6016E197F0910
:103460008BEB94E10E94701977CF0F900F900F9023
:103470000F90DF91CF911F910F91FF90EF90DF9010
:10348000CF90BF90AF909F908F907F906F905F9004
:103490004F903F902F9008952F923F924F925F92BE
:1034A0006F927F928F929F92AF92BF92CF92DF9254
:1034B000EF92FF920F931F93CF93DF9300D000D032
:1034C000CDB7DEB73C016A013E832D83FC82EB82DF
:1034D0005801A41AB50AB7FE03C0B194A194B1086B
:1034E0008D809E80861A970A97FE03C091948194DE
:1034F00091088A149B045CF0902F812F0D811E810E
:103500009D838E839C2D8D2D6B01692F782F0C153B
:103510001D055CF09D818E817E836D83692F782FE0
:10352000902F812F8601C92ED82E1601201A310A1C
:103530002B012D813E81421A530A57FE03C051943C
:1035400041945108710137FE03C03FEFE31AF30ABB
:10355000F594E7948D819E81861797075CF5A1E02D
:10356000B0E0BA83A983C016D1064CF1D301ED9126
:10357000FC910484F585E02D2B813C81A8016D81AF
:103580007E818A149B041CF04D815E81B801C301C9
:103590001995E418F508F7FE0AC02D813E8189814E
:1035A0009A81280F391F3E832D83E20CF31C0F5F95
:1035B0001F4FD9CF2FEF3FEF3A832983D4CF2696E1
:1035C0000FB6F894DEBF0FBECDBFDF91CF911F9134
:1035D0000F91FF90EF90DF90CF90BF90AF909F90B2
:1035E0008F907F906F905F904F903F902F900895B5
:1035F000089508958150823108F05AC0E82FF0E014
:103600008827EA5FF44E8F4F0C943A6D261B2A1BD5
:10361000181B1E1B221B581B2D1B331B371B3D1B4E
:10362000411B451B4B1B4F1B581B531B591B5D1B41
:10363000809180008F778093800008958091800032
:103640008F7DF9CF80918000877FF5CF84B58F770C
:1036500084BD089584B58F7DFBCF8091B0008F77B6
:103660008093B00008958091B0008F7DF9CF809154
:1036700090008F77809390000895809190008F7DC7
:10368000F9CF80919000877FF5CF8091A0008F7750
:103690008093A00008958091A0008F7DF9CF809144
:1036A000A000877FF5CF809120018F778093200144
:1036B0000895809120018F7DF9CF80912001877F2F
:1036C000F5CF1F93CF93DF93282F30E0F901ED5A08
:1036D000F44F8491F901E35FF44FD491F901E95378
:1036E000F54FC491CC23A9F0162F81110E94FA1A2C
:1036F000EC2FF0E0EE0FFF1FE355F54FA591B491CD
:103700008FB7F894EC91111108C0D095DE23DC93AB
:103710008FBFDF91CF911F910895DE2BF8CFCF930C
:10372000DF9390E0FC01E35FF44F24918953954FC0
:10373000FC0184918823D1F090E0880F991FFC014F
:10374000ED56F54FA591B491FC01E355F54FC591A8
:10375000D49161110EC09FB7F8948C91E22FE0953F
:103760008E238C932881E223E8839FBFDF91CF9142
:1037700008958FB7F894EC91E22BEC938FBFF6CFBE
:103780003FB7F8948091FB109091FC10A091FD1030
:10379000B091FE1026B5A89B05C02F3F19F00196E9
:1037A000A11DB11D3FBFBA2FA92F982F8827BC019B
:1037B000CD01620F711D811D911D42E0660F771FC3
:1037C000881F991F4A95D1F708958F929F92AF92C3
:1037D000BF92CF92DF92EF92FF926B017C010E9429
:1037E000C01B4B015C01C114D104E104F104B9F028
:1037F0000E94C01B681979098A099B09683E7340B9
:103800008105910580F321E0C21AD108E108F10891
:1038100088EE880E83E0981EA11CB11CE4CFFF90B7
:10382000EF90DF90CF90BF90AF909F908F900895D2
:1038300081E080937B13E1E0F1E080818867808301
:103840009D9A8DB188638DB9809A819A829A839A64
:10385000849A8B9A889A899A8C9A62E370E080E0C5
:1038600090E00E94E51B8C9864E670E080E090E0B8
:103870000E94E51B8C9A64E670E080E090E00E9474
:10388000E51B70E060E080EB90E00C94990BEF9208
:10389000FF920F931F93CF93DF93EC01E62E80915D
:1038A0007B13811102C00E94181C8B988A9880910A
:1038B0000201877880930201A5988EB1877C8EB92A
:1038C00080910201809302018EB18EB984B384BBD2
:1038D0008EB18EB980910201809302018998899AF4
:1038E00080910201877880930201A5988EB1877C30
:1038F0008EB920910201CE0115E0880F991F1A950B
:10390000E1F78076822B809302012EB1CE01880FE1
:10391000991F880F991F8073822B8EB924B3CE0113
:10392000880F991F8072822B84BB2EB1CE01959592
:103930008795959587958870822B8EB98091020125
:1039400053E0D595C7955A95E1F7C871C82BC09338
:1039500002018998899A8A9A8091010187788093D7
:1039600001019D988DB1877C8DB961E070E080E0A8
:1039700090E00E94E51B61E070E080E090E00E9432
:10398000E51B889A889888988898D09100011CB186
:1039900002B3CCB1F0900001889A61E070E080E061
:1039A00090E00E94E51B889A8898889888984091B2
:1039B00000015CB1E2B39CB1F0910001889AEA94F5
:1039C0006FEFE612D8CF889A8B9A809101018867B1
:1039D000809301019D9A8DB188638DB984E0C89F61
:1039E000900111242072332788E0F89EB001112441
:1039F000607C7727262B602F70E075956795607146
:103A00007727262B612F70E07595679575956795DB
:103A10006C707727262B6D2F70E0B5E07595679554
:103A2000BA95E1F763707727262B64E0969FC00173
:103A30001124807298E0F99FB0011124607C862BDC
:103A4000E695E0718E2B569556955C70852B50E06F
:103A5000C5E055954795CA95E1F74370842B922FA1
:103A6000DF91CF911F910F91FF90EF9008950F93E9
:103A70001F93CF93DF938C0160E00E94471CEC0101
:103A800061E0C8010E94471C8C01BE0190E080E00B
:103A9000CB017727662730E020E0602B712B822B4B
:103AA000932BDF91CF911F910F910895FF920F9368
:103AB0001F93CF93DF938C0160E00E94471CEC01C1
:103AC00061E0C8010E94471CF82E62E0C8010E9414
:103AD000471CAE0170E060E0742F6627552744272D
:103AE00000E030E020E0402B5F29622B732B292F70
:103AF00030E0C901B0E0A0E08A019B01082B192B3E
:103B00002A2B3B2BC901B801DF91CF911F910F9157
:103B1000FF9008950F931F93CF93DF93EC018B01D8
:103B2000FE0185919491FE013296249665917491DF
:103B30008F3F980771F490E080E00E94E51B0450ED
:103B400011091016110664F3DF91CF911F910F91A7
:103B500008950E94990BF3CF0F931F93CF93DF9398
:103B6000EC018B01FE0184913196649122968F378E
:103B700099F470E090E080E00E94E51B60E070E066
:103B80006E5F7F4F061B170B101611065CF3DF915B
:103B9000CF911F910F9108958B988A98909102016F
:103BA000977890930201A5989EB1977C9EB9409119
:103BB000020190E09C0155E0220F331F5A95E1F776
:103BC0002076242B209302014EB19C01220F331F3B
:103BD000220F331F2073242B2EB944B39C01220FD4
:103BE000331F2072242B24BB4EB19C0135952795A1
:103BF000359527952870242B2EB920910201A3E03A
:103C000095958795AA95E1F78871822B809302019B
:103C10008998899A50E040E0461708F045C0FE01B7
:103C2000E40FF51FE4918A9A8091020187788093CE
:103C30000201A5988EB1877C8EB9709102018E2FFA
:103C400090E09C01E5E0220F331FEA95E1F7207632
:103C5000272B209302017EB19C01220F331F220FDC
:103C6000331F2073272B2EB974B39C01220F331FEF
:103C70002072272B24BB7EB19C0135952795359565
:103C800027952870272B2EB9E091020123E0959506
:103C900087952A95E1F788718E2B80930201899888
:103CA000899A4F5F5F4FB8CFC60FD11D8B9A67CFF0
:103CB0002FB7F8946091F7107091F8108091F91077
:103CC0009091FA102FBF0895AF92BF92CF92DF92DA
:103CD000EF92FF920F931F93CF93DF936C017B01C1
:103CE0008B01040F151FEB015E01AE18BF08C01752
:103CF000D10759F06991D601ED91FC910190F081C5
:103D0000E02DC6011995892B79F7C501DF91CF9177
:103D10001F910F91FF90EF90DF90CF90BF90AF90E9
:103D20000895FC01538D448D252F30E0842F90E0C1
:103D3000821B930B541710F0CF96089501970895A6
:103D4000FC01918D828D981761F0A28DAE0FBF2F6F
:103D5000B11D5D968C91928D9F5F9F73928F90E0C5
:103D600008958FEF9FEF0895FC01918D828D981734
:103D700031F0828DE80FF11D858D90E008958FEF71
:103D80009FEF0895FC01918D228D892F90E0805C3A
:103D90009F4F821B91098F73992708958EE194E1BB
:103DA0000E94C21E21E0892B09F420E0822F089591
:103DB000FC01A48DA80FB92FB11DA35ABF4F2C91A0
:103DC000848D90E001968F739927848FA689B78997
:103DD0002C93A089B1898C91837080648C93938D8E
:103DE000848D981306C00288F389E02D80818F7D31
:103DF00080830895EF92FF920F931F93CF93DF93E9
:103E0000EC0181E0888F9B8D8C8D98131AC0E88916
:103E1000F989808185FF15C09FB7F894EE89FF89E5
:103E20006083E889F98980818370806480839FBF83
:103E300081E090E0DF91CF911F910F91FF90EF9083
:103E40000895F62E0B8D10E00F5F1F4F0F73112793
:103E5000E02E8C8D8E110CC00FB607FCFACFE889CE
:103E6000F989808185FFF5CFCE010E94D81EF1CF60
:103E7000EB8DEC0FFD2FF11DE35AFF4FF0829FB742
:103E8000F8940B8FEA89FB8980818062CFCFCF9332
:103E9000DF93EC01888D8823B9F0AA89BB89E88972
:103EA000F9898C9185FD03C0808186FD0DC00FB618
:103EB00007FCF7CF8C9185FFF2CF808185FFEDCF96
:103EC000CE010E94D81EE9CFDF91CF91089580E006
:103ED00090E0892B29F00E94CE1E81110E940000E3
:103EE00080E090E0892B49F080E090E0892B29F078
:103EF0000E94000081110E94000080E090E0892B68
:103F000049F080E090E0892B29F00E9400008111A7
:103F10000E94000080E090E0892B49F080E090E072
:103F2000892B29F00E94000081110C940000089553
:103F3000FC01908190539A3008F090E08181805389
:103F40002AE0929F800D112408959F92AF92BF9214
:103F5000CF92DF92EF92FF920F931F93CF93DF9355
:103F60008C01A12CC7E0D0E093E2E92EF12CCC2407
:103F7000C394D12C60E0F80180810E94611BC701CD
:103F80000197F1F7F801218130E0F901ED5AF44F82
:103F90008491F901E35FF44FB490F901E953F54FCF
:103FA00094909920A9F081110E94FA1AE92DF0E06D
:103FB000EE0FFF1FE154FD4FA591B491EC91BE228D
:103FC00039F0C6010C2E01C0880F0A94EAF7A82A1E
:103FD00061E0F80180810E94611BC7010197F1F740
:103FE000219708F0C7CF8A2DDF91CF911F910F91B4
:103FF000FF90EF90DF90CF90BF90AF909F9008958B
:104000006F927F928F92AF92BF92CF92DF92EF9298
:10401000FF920F931F93CF93DF935901F701D601BE
:10402000EC018AA19BA160909E0270909F028090FB
:10403000A002E901688279828A82C090A102D090B0
:10404000A202E090A302E801C882D982EA82C0906D
:10405000A402D090A502E090A602C082D182E282A2
:104060000091A7021091A8022091A9020D931D931F
:104070002C931297603F69F5C090AA02D090AB02D2
:10408000E090AC02E501C882D982EA8210821182F6
:104090001282C090AD02D090AE02E090AF02CD92FD
:1040A000DD92EC9221E0FA012083613109F061C0D8
:1040B000EC0188A18083DF91CF911F910F91FF9038
:1040C000EF90DF90CF90BF90AF908F907F906F90E8
:1040D0000895603101F5EC012AA12223A1F0C090DE
:1040E000B002D090B102E090B202E501C882D9825C
:1040F000EA82108211821282C090B302D090B40280
:10410000E090B502CCCFE501688279828A82C082D4
:10411000D182E282F1CF6131D1F3623059F420EEE5
:10412000208311821282C090B602D090B702E09034
:10413000B802B5CF633059F4108220EE2183128289
:10414000C090B902D090BA02E090BB02A8CF2BEF8A
:10415000260F223058F41082118220EE2283C09064
:10416000BC02D090BD02E090BE0299CF603298F7B9
:1041700099CF603109F09FCFFC01878DEA018883D8
:104180009ACF21E0FC0121A312A2089580E00895B6
:10419000009731F0FC01208131812160318320833F
:1041A0000895272F66956695669570E0762F6627A9
:1041B000770F770F770F2695269590E2299F90012C
:1041C0001124622B732B8695869586959B01282B4F
:1041D000C90108952F923F924F925F926F927F9202
:1041E0008F929F92AF92BF92CF92DF92EF92FF9207
:1041F0000F931F93CF93DF93CDB7DEB72F970FB6F3
:10420000F894DEBF0FBECDBF7F836E83598748878A
:10421000D901B9016E5F7F4F002309F4B9C0F901DC
:10422000F4912F2F30E0322F2227FD013196449157
:10423000E42FF0E0FB83EA834A815B81422B532B1E
:104240005F874E87AD014C5F5F4F002309F4A9C023
:10425000FB01649170E0762F6627FD013396E491AF
:10426000F0E09F01262B372B3B832A83BA016F5F37
:104270007F4F002309F49EC0FA01F491F9839A015B
:104280002E5F3F4F002309F499C0FB015490F901C0
:1042900044901A01B4E02B0E311C2E853F85295F16
:1042A0003F4F37FF04C02E853F85225F3F4FF90106
:1042B00023E0F595E7952A95E1F7FD83EC83D12C72
:1042C000C12C10E0B12CA12C9C012C593F4F3D87F3
:1042D0002C874A815B81A416B5060CF084C0F12CB2
:1042E000E12CC1018C0D9D1D9B878A878884998450
:1042F0008A0C9B1CAE85BF85EA16FB060CF06BC0D2
:10430000C70187709927110F892B71F4F70183E09A
:10431000F595E7958A95E1F7002309F456C0EC0D71
:10432000FD1DE20DF31D149117FF2EC06E807F80DE
:104330006E0C7F1CAC85BD85ED91FC912381348191
:10434000621673060CF1878190850197820F931F87
:1043500086159705CCF02581368182169306A4F048
:10436000818592850197820F931F8815990564F0C6
:104370006981752D842D0E94D1209C01A401B30177
:104380008BEB94E10E94CB0FBFEFEB1AFB0AB2CF8D
:104390002C91298330E0322F222711964C911197CE
:1043A00047CF12966C91129770E0762F662713967E
:1043B000EC9156CFDA01BC91B98361CFDA01119645
:1043C0005C90119712964C9064CF2A853B85E20F42
:1043D000F31F1081A9CFEFEFAE1ABE0A2C813D81E9
:1043E000C20ED31E76CF2F960FB6F894DEBF0FBE47
:1043F000CDBFDF91CF911F910F91FF90EF90DF9094
:10440000CF90BF90AF909F908F907F906F905F9074
:104410004F903F902F9008952F923F924F925F922E
:104420006F927F928F929F92AF92BF92CF92DF92C4
:10443000EF92FF920F931F93CF93DF9300D000D0A2
:104440001F921F92CDB7DEB709831A832B833C835B
:104450004D835E836F83788749815A818C599F4F42
:10446000DC01ED91FC91A380B4806D807E80B1E091
:104470006B1A7108640E751E6A147B040CF445C037
:104480002780308421E0221A31082A0C3B1C241694
:104490003506DCF18B819C81858096804F80588425
:1044A000A1E04A1A5108480E591E481459046CF1EB
:1044B0000185128501501109080D191D08171907EA
:1044C00024F1A416B5060CF45A01881699060CF4CA
:1044D0004C018E2DB6010E94D120401651060CF4DD
:1044E0008201081919090F5F1F4F621473040CF43D
:1044F00013012A183B0891012F5F3F4F7C01A40153
:10450000B5018BEB94E10E94510D81E028960FB626
:10451000F894DEBF0FBECDBFDF91CF911F910F91F9
:10452000FF90EF90DF90CF90BF90AF909F908F90D3
:104530007F906F905F904F903F902F900895CF9312
:10454000DF93FC01892B09F45BC01382128281E3A3
:1045500098EF9183808384E090E09583848389EA57
:1045600094EE97878687DF01169688E0ED01199211
:104570008A95E9F7158E148E178E168E11A210A249
:1045800013A212A215A214A217A216A211A610A677
:1045900013A612A680919E0290919F02A091A00264
:1045A000808B918BA28B838B948BA58B868B978B27
:1045B000A08F818F928FA38F12AA11AA17A616A679
:1045C00010AA83AB94ABA5AB86AB97ABA0AF82E24E
:1045D00081AF12AE13AE15AE14AE17AE16AEDF013C
:1045E000A05CBF4F11961C921E92129611961C92BF
:1045F0001E9212961D921C92EA5BFF4F118210824E
:10460000DF91CF910895CF93DF93FC01EE57FF4FD9
:10461000408150E020E032973CE1822F022E000CD6
:10462000990B841795072CF090E080E0DF91CF91F3
:104630000895808191812302800D911D1124EC0148
:10464000AA89BB89A617B70789F32F5FE6CFDC01DC
:104650001D968C911D9730E020E090E0891304C0F6
:10466000F0E0E0E0CF0108951A96ED91FC911B97E0
:10467000E20FF31F265F3F4F4081518146175707D6
:1046800089F39F5FEBCFEF92FF920F931F93CF932E
:10469000DF9300D000D01F921F92CDB7DEB7DC01B0
:1046A00009831A832B833C834D835E836F837887D2
:1046B00014960D911C9115970115110531F0169660
:1046C000ED91FC9117973097A1F488E0FE013196A7
:1046D00001900D928A95E1F728960FB6F894DEBF07
:1046E0000FBECDBFDF91CF911F910F91FF90EF9043
:1046F000089529813A81EB80FC806D917C9111971E
:1047000012964D915C91139701501109060F171FD6
:104710003197E40FF51F261737070CF4B901E4169B
:10472000F5060CF4A7018D819E810197820F931FDE
:10473000801791070CF4C8012F8138852150310969
:104740002E0D3F1D2E173F070CF49F0111967C93F1
:104750006E9313965C934E931297861B970B01965C
:1047600015969C938E931497241B350B2F5F3F4F08
:1047700017963C932E931697AFCF0F931F93CF931B
:10478000DF9300D000D01F921F92CDB7DEB7098310
:104790001A832B833C834D835E836F837887FC0170
:1047A000EE56FF4F20818D569F4F222371F02B81B3
:1047B0000E94432328960FB6F894DEBF0FBECDBFEC
:1047C000DF91CF911F910F91089521E0208328E080
:1047D000FE013196DC0101900D922A95E1F7EACFB6
:1047E0007F928F929F92AF92BF92CF92DF92EF9281
:1047F000FF920F931F93CF93DF937C01762E5A0184
:10480000C62ED12C8601000F111F080F191F0C573F
:104810001F4FF801C081D181209709F462C08A88B6
:104820009B8890E080E04934544FA1F0B501C70166
:104830000E940323009771F4DF91CF911F910F9194
:10484000FF90EF90DF90CF90BF90AF909F908F90B0
:104850007F900895F80191838083A814B90451F0E2
:10486000E114F10439F081E0F701E057FF4F808354
:10487000BA978083209781F00C891D892E893F8902
:10488000488D598D6A8D7B8DC7010E94BD2381E0C3
:10489000F701EE56FF4F8083E601CE5BDF4FCC0F72
:1048A000DD1FCE0DDF1D6701F2E9CF0ED11CBB2449
:1048B000B394E991F991309769F0048915892689B3
:1048C0003789408D518D628D738DC7010E94BD2344
:1048D000F601B082F2E07F1609F4AECF92E0792EB5
:1048E000E8CF89E4882E84EF982E4934544FA1F202
:1048F0009DCF6F927F928F929F92AF92BF92CF92F5
:10490000DF92EF92FF920F931F93CF93DF937C017F
:104910009091FF138091FE13981708F063C039013E
:104920005A01C091FC13D091FD132CE1929FC00D50
:10493000D11D1124209799F15B834A831D821C822B
:1049400080E090E49F838E8379836883912C812C0F
:10495000D12CC12C88819981880D991D0E949F229C
:104960008FEFC81AD80AE8E48E0E911CAC14BD046F
:1049700089F71B870A871D861C8668867986F3015E
:1049800090E080E01182108201963496C816D90614
:10499000C9F71F861E8681EF98ED998B888BFB8A5D
:1049A000EA8A649688E0FE0111928A95E9F780917F
:1049B000FF138F5F8093FF13E0910214F0910314B3
:1049C000309729F0828993898934944F31F4A70173
:1049D00061E08CE793E10E94F02381E080930C1466
:1049E0008093E213DF91CF911F910F91FF90EF9091
:1049F000DF90CF90BF90AF909F908F907F906F90FF
:104A00000895CF93DF93EC0149E454EF62E00E94F4
:104A1000F023FE01EA57FF4F80819181892B29F015
:104A200081E03596808333968083FE01EC57FF4FFB
:104A300080819181892B31F0369681E08083C35744
:104A4000DF4F8883DF91CF9108952F923F924F924D
:104A50005F926F927F928F929F92AF92BF92CF920E
:104A6000DF92EF92FF920F931F93CF93DF93CDB717
:104A7000DEB72C970FB6F894DEBF0FBECDBFFC019A
:104A80007C836B835E834D8338872F831A870987E6
:104A9000C080D180A280B3808480958021E0821A7A
:104AA00091088C0C9D1CE680F78031E0E31AF10838
:104AB000EA0CFB1C8C149D040CF46AC01401DA820D
:104AC000C98237012501EA14FB0414F435012701DA
:104AD00070E060E090E080E0EB81FC81008111817A
:104AE000ED81FE810190F081E02DFC87EB87EF8165
:104AF000F88540815181A985BA85ED91FC9131E01D
:104B00000C151D052CF032E0801691060CF030E0FB
:104B1000AB85BC85AA15BB050CF03EC0346021E016
:104B20004C155D052CF022E0841695060CF020E073
:104B3000EA15FB05CCF52460A32FA22309F0B2C02F
:104B40003111232F23FF53C0401B510BD3018B8501
:104B50009C85A81BB90B4A9FC0014B9F900D5A9F83
:104B6000900D1124BF014B855C85641B750B0E9461
:104B7000266DCB01800F911FB30132138CC0EB81E6
:104B8000FC8191838083ED81FE8171836083A4CF5A
:104B900016019A82898295CFAB85BC85EA16FB0601
:104BA0000CF0BDCF3860BBCFEE16FF0614F42860C2
:104BB000C3CF3111C1CF2111BFCF81E02C960FB6E9
:104BC000F894DEBF0FBECDBFDF91CF911F910F9143
:104BD000FF90EF90DF90CF90BF90AF909F908F901D
:104BE0007F906F905F904F903F902F90089522FF9D
:104BF0001AC0401B510BD2018B859C85A81BB90B99
:104C00004A9FC0014B9F900D5A9F900D1124BF01E8
:104C10004B855C85641B750B0E94266DCB01800F54
:104C2000911FB201AACF21FF19C08B859C85E81B7B
:104C3000F90BD101A01BB10BEA9FC001EB9F900DB6
:104C4000FA9F900D1124BA01601B710B0E94266D12
:104C5000EB85FC856E0F7F1FC1018FCF20FF8DCFAD
:104C60008B859C85E81BF90B69817A81601B710B30
:104C7000E69FC001E79F900DF69F900D1124BA01A9
:104C8000601B710B0E94266DEB85FC856E0F7F1FEC
:104C900089819A8172CFEF81F88591838083E9853C
:104CA000FA8573CF80E08ACF2F923F924F925F9226
:104CB0006F927F928F929F92AF92BF92CF92DF922C
:104CC000EF92FF920F931F93CF93DF93CDB7DEB791
:104CD00062970FB6F894DEBF0FBECDBF9A8B898B5B
:104CE00009871A872B873C874D875E876F87788B6C
:104CF00089849A84AB84BC844D845E842F843888F4
:104D00008E2DB6010E94D1203C01E989FA89EC5927
:104D1000FF4FC080D1809A828982BC82AB8281E0C1
:104D2000481A5108480C591C5E824D82B886AF82E1
:104D300083E0C80ED11C8E01095F1F4F9E012B5FBF
:104D40003F4FAE014D5F5F4FBE016F5F7F4FC601AA
:104D50000E942525882369F00F8118852D813E81C9
:104D60004B815C8169817A8173018BEB94E10E94B4
:104D700032179A82898281E0281A31082A0C3B1C5A
:104D80003C822B825E824D8238862F828E01095FA3
:104D90001F4F9E012B5F3F4FAE014D5F5F4FBE0126
:104DA0006F5F7F4FC6010E942525882369F00F8120
:104DB00018852D813E814B815C8169817A817301E7
:104DC0008BEB94E10E9432179A828982BC82AB827B
:104DD0009E828D8238862F828E01095F1F4F9E0131
:104DE0002B5F3F4FAE014D5F5F4FBE016F5F7F4F47
:104DF000C6010E942525882369F00F8118852D8121
:104E00003E814B815C8169817A8173018BEB94E1F6
:104E10000E9432175A824982BC82AB825E824D82E6
:104E200038862F828E01095F1F4F9E012B5F3F4FF7
:104E3000AE014D5F5F4FBE016F5F7F4FC6010E94A5
:104E40002525882369F00F8118852D813E814B81AE
:104E50005C8169817A8173018BEB94E10E94321746
:104E600081E062960FB6F894DEBF0FBECDBFDF9132
:104E7000CF911F910F91FF90EF90DF90CF90BF9057
:104E8000AF909F908F907F906F905F904F903F90EA
:104E90002F9008958FB7F894809176108FBF089562
:104EA00061E0FC0184810E94611B80917510811179
:104EB0001092751008958EBD00000DB407FEFDCF51
:104EC0008EB508958FEF0C945B270F931F93CF93AC
:104ED000DF93EC010E94581E8B010E9462278F3FD6
:104EE00069F00E94581E601B710B6C177D07A8F3B8
:104EF00080E0DF91CF911F910F91089581E0F9CF6C
:104F00008CBD9DBD0895CF93DF93EC01809175100A
:104F1000811109C081E0809375108091F014909107
:104F2000F1140E94802760E08C81DF91CF910C9476
:104F3000611B8F929F92AF92BF92FF920F931F932C
:104F4000CF93DF93EC01F62E49015A018E8188231D
:104F500089F08F8198859C012F5F3F4F38872F8381
:104F60008230924018F40E946227F3CFCE010E9453
:104F700050271E82CE010E9483278CE291E00E947E
:104F800065278F2D80640E945B2708E110E0D50122
:104F9000C401002E04C0B695A795979587950A94ED
:104FA000D2F70E945B2708501109083F8FEF1807BE
:104FB00071F785E9FF2021F028E087E8F2128FEFF2
:104FC0000E945B2710E00E9462278A8787FF04C047
:104FD0001F3F11F01F5FF7CFDF91CF911F910F910E
:104FE000FF90BF90AF909F908F900895AF92BF9227
:104FF000CF92DF92EF92FF920F931F93CF93DF93A5
:10500000EC016901C801820F931F8130924050F575
:105010008E81882379F088819981AA81BB81841748
:105020009507A607B70731F48F819885C816D9066A
:1050300008F042C0488359836A837B838B85833021
:1050400039F089E0440F551F661F771F8A95D1F705
:105050009A01AB0161E1CE010E949927882389F072
:1050600083E08D83CE010E94502780E0DF91CF91B5
:105070001F910F91FF90EF90DF90CF90BF90AF9076
:1050800008950E94581E5B010E9462278A878F3F05
:1050900069F40E94581E6A197B096D327140A0F3B1
:1050A0008FE08D83CE010E945027DCCF8E3F89F4A4
:1050B00018861F8281E08E838F8198858C159D05CF
:1050C00050F40E9462278F819885019698878F837C
:1050D000F3CF8DE0E6CF6701E00EF11E0E9462275C
:1050E000F60181936F01EE15FF05C1F78F81988559
:1050F000080F191F18870F838985882319F0011558
:105100001240A0F08E81882389F08F8198859C01C0
:105110002F5F3F4F38872F838230924018F40E94D0
:105120006227F3CFCE010E9450271E8281E09ECFDE
:10513000CF92DF92EF92FF920F93CF93DF93EC0128
:10514000690182E1411551056105710599F08B8571
:10515000833039F089E0440F551F661F771F8A9509
:10516000D1F79A01AB0168E1CE010E94992788230B
:1051700019F084E08D832DC08EEF0E945B277601AD
:105180008EEFD81AF70181917F010E945B27EC1402
:10519000FD04C1F78FEF0E945B278FEF0E945B2712
:1051A0000E9462278A878F71853071F4011116C0C1
:1051B000CE010E94502781E0DF91CF910F91FF90A7
:1051C000EF90DF90CF90089581E18D83CE010E9412
:1051D0005027CE010E94502780E0EECF88E592E074
:1051E0000E946527811102C085E1C4CF20E030E034
:1051F000A9016DE0CE010E949927882311F084E176
:10520000B9CF0E9462278111FACFD2CF0F9340917C
:1052100078105091791060917A1070917B1041153F
:1052200051056105710599F0082F25E031E1809164
:105230000513909106130E949828882349F0109234
:1052400078101092791010927A1010927B1081E0F1
:105250000F9108950F93CF93C82F809177108111EC
:1052600005C0C1E08C2FCF910F91089540918C0221
:1052700050918D0260918E0270918F020C2F25E06B
:1052800031E180910513909106130E9498288111B5
:1052900002C0C0E0E7CFCC2321F381E00E940629C1
:1052A0008823B9F310927710DDCF8F929F92AF923F
:1052B000BF92EF92FF920F931F93CF934B015C012C
:1052C000C42F80918C0290918D02A0918E02B0919A
:1052D0008F0288159905AA05BB0551F181E00E944E
:1052E0002A2981110BC080E0CF911F910F91FF906F
:1052F000EF90BF90AF909F908F90089585E0E82E3B
:1053000081E1F82E00E012E030E020E0B501A401D8
:1053100080910513909106130E94F627882319F3B4
:1053200080928C0290928D02A0928E02B0928F0297
:10533000409177104C2B4093771081E0D5CF8F921E
:105340009F92AF92BF92CF92DF92EF92FF92CF9354
:1053500022EF34E13093061320930513882309F4D8
:105360006DC040E060E070E0CB010E9455298111E2
:105370000BC080E0CF91FF90EF90DF90CF90BF9077
:10538000AF909F908F9008958091C3128F7789F787
:105390008091CF129091D012A091D112B091D212DF
:1053A00084369105A105B10520F3C090CB12D090B1
:1053B000CC12E090CD12F090CE12C114D104E104D1
:1053C000F104B9F240E0C701B6010E9455298823D3
:1053D00081F280911011909111118115924049F63E
:1053E000A0911511AA2329F2609113117091141143
:1053F0006115710509F4BDCF20911211222309F422
:10540000B8CFA09310152093021590E080E030E013
:10541000E1E0F0E0C82FAF01082E02C0440F551F95
:105420000A94E2F72417350769F041E0480F019626
:105430008930910579F740930B159BCFC12CD12C66
:105440007601C0CF80930B1520911B1130911C1158
:1054500050E040E02115310541F4209129113091AF
:105460002A1140912B1150912C1120930315309348
:105470000415409305155093061546015701860EF5
:10548000971EA11CB11C8092111590921215A0922A
:105490001315B0921415E0911611F0911711F093B5
:1054A0001715E0931615B0E00E94EC6CDC01CB01FF
:1054B000880D991DAA1DBB1D809318159093191571
:1054C000A0931A15B0931B1525E0EE0FFF1F2A9528
:1054D000E1F7E150FE4FEF2FFF27E6958E0F9F1F5C
:1054E000A11DB11D80930C1590930D15A0930E1561
:1054F000B0930F158090181190901911B12CA12C18
:105500008114910441F48090251190902611A0906F
:105510002711B0902811C81AD90AEA0AFB0AC80C48
:10552000D91CEA1CFB1C04C0F694E794D794C794DA
:10553000CA95D2F7C0920715D0920815E0920915C6
:10554000F0920A1585EFC8168FE0D806E104F10441
:1055500028F48CE08093151581E00CCF80E125EFD5
:10556000C2162FEFD206E104F104A0F380913111AD
:1055700090913211A0913311B0913411809318158C
:1055800090931915A0931A15B0931B1580E2E2CFE2
:105590004F925F926F927F928F929F92AF92BF9243
:1055A000CF92DF92EF92FF920F931F93CF93DF93EF
:1055B000EC01423051056105710590F480E0DF9106
:1055C000CF911F910F91FF90EF90DF90CF90BF9000
:1055D000AF909F908F907F906F905F904F900895C5
:1055E00089859A85AB85BC850196A11DB11D84175F
:1055F0009507A607B70710F3CB88DC88ED88FE88EF
:105600008F89803109F042C0BB27A72F962F852FA5
:10561000480159012A013B01C80ED91EEA1EFB1E92
:1056200080918C0290918D02A0918E02B0918F0298
:10563000C816D906EA06FB0699F58F898031C1F5AF
:10564000B301A201552766277727440F551F4B5FEB
:105650005E4EFA0191828082809177108160809302
:1056600077108A89823080F08D819E81AF81B885E4
:105670008C0D9D1DAE1DBF1D8093781090937910E9
:10568000A0937A10B0937B1081E099CFDB01CA011F
:10569000E7E0B695A79597958795EA95D1F7B8CFA6
:1056A00040E0C701B6010E9455298111C6CF86CFBF
:1056B000B301A2014F77552766277727440F551F5F
:1056C000440F551F4B5F5E4EFA0180829182A28289
:1056D000B382C2CF8F929F92AF92BF92CF92DF924E
:1056E000EF92FF920F931F93CF93DF93FC0181857D
:1056F0009285A385B4850196A11DB11D84179507D8
:10570000A607B70770F480E0DF91CF911F910F914A
:10571000FF90EF90DF90CF90BF90AF909F908F90D1
:10572000089583889488A588B6888789803189F50B
:10573000BB27A72F962F852FE9016A017B018F01D7
:10574000BC01CD01680D791D8A1D9B1D80908C02C6
:1057500090908D02A0908E02B0908F0286169706D0
:10576000A806B90601F5F8018789803111F5DD2415
:10577000EE24FF24F601EE0FFF1FEB5FFE4E80814B
:105780009181B0E0A0E088839983AA83BB8381E004
:10579000BBCFDB01CA01C7E0B695A7959795879562
:1057A000CA95D1F7C9CF40E00E9455298111DBCFBE
:1057B000AACFE894C7F8DD24EE24FF24F601EE0F0B
:1057C000FF1FEE0FFF1FEB5FFE4E80819181A281D4
:1057D000B381BF70D8CF2F923F924F925F926F925A
:1057E0007F928F929F92AF92BF92CF92DF92EF9271
:1057F000FF920F931F93CF93DF93EC014B018D81A9
:10580000811115C08FEF9FEFDF91CF911F910F9105
:10581000FF90EF90DF90CF90BF90AF909F908F90D0
:105820007F906F905F904F903F902F9008958C8164
:1058300080FFE8CF4B895C896D897E898A859B854D
:10584000AC85BD85412C481759076A077B0711F0C5
:1058500044244394512C52011E0126E0220E311C97
:10586000A114B10409F4B3C04A855B856C857D85BC
:105870006A0181E0D8228B8D9C8D8A019B01E9E031
:105880003695279517950795EA95D1F7ED81E23082
:10589000E1F5FC01628D738D848D958D600F711F14
:1058A000821F931F612C22E0722E6C187D08A614B3
:1058B000B70408F435012C8126FD04C06114F2E020
:1058C0007F0671F400918C0210918D0220918E025E
:1058D00030918F02061717072807390709F053C0C0
:1058E00040E00E945529882309F48CCFC6018B5FC4
:1058F0009E4ED4019C01260D371DFC012E173F073B
:1059000009F460C041914D93F9CFFC0174807A9401
:105910007022C114D10471F471100CC0452B462BB8
:10592000472B39F58F89988DA98DBA8D8E839F83EA
:10593000A887B987EB8DFC8D6E817F8188859985DD
:105940006250710981099109258504C0660F771F8E
:10595000881F991F2A95D2F70685178520893189D6
:10596000600F711F821F931F670D711D811D911D97
:1059700099CF4E815F816885798591010E946A2B5C
:105980008111D8CF3FCF740183019601AB01BC01D7
:1059900080910513909106130E94F627882309F43D
:1059A00031CF860C971C8A859B85AC85BD85860D7D
:1059B000971DA11DB11D8A879B87AC87BD87A6183F
:1059C000B7084ECF281B390B820E931EECCFC201B5
:1059D0001BCF8F929F92AF92BF92CF92DF92EF92A6
:1059E000FF920F931F93CF93DF93EC018D81811171
:1059F0000EC080E0DF91CF911F910F91FF90EF904B
:105A0000DF90CF90BF90AF909F908F9008950B89BB
:105A10001C892D893E89041715072607370748F387
:105A20004A015B01823031F48A869B86AC86BD8652
:105A300081E0E0CF81149104A104B10449F41E82F5
:105A40001F82188619861A861B861C861D86F0CF33
:105A50000A851B852C853D85EB8DFC8D858590E029
:105A60000996B901A8014150510961097109082E2F
:105A700004C076956795579547950A94D2F77501B6
:105A80006401E1E0CE1AD108E108F10804C0F694FF
:105A9000E794D794C7948A95D2F7C416D506E6063C
:105AA000F70620F0012B022B032B11F58F89988D1F
:105AB000A98DBA8D8E839F83A887B9878E010A5FCF
:105AC0001F4FC114D104E104F10409F4ADCF4E819C
:105AD0005F816885798598018B8D9C8D0E946A2BEA
