:100000000C94CC070C94FD070C94FD070C94FD0791
:100010000C94FD070C94FD070C94FD070C94FD0750
:100020000C94FD070C94FD070C94FD070C94FD0740
:100030000C94FD070C94FD070C94FD070C94FD0730
:100040000C94FD070C94FD070C94FD070C94FD0720
:100050000C94FD070C94FD070C94FD070C94CC49FF
:100060000C94FD070C94404A0C94164A0C94FD071E
:100070000C94FD070C94FD070C94FD070C94FD07F0
:100080000C94FD070C94FD070C94FD070C94FD07E0
:100090000C94FD070C94FD070C94FD070C94FD07D0
:1000A0000C94FD070C94FD070C94FD070C94FD07C0
:1000B0000C94FD070C94FD070C94FD070C94FD07B0
:1000C0000C94FD070C94FD070C94FD070C94FD07A0
:1000D0000C94FD070C94FD070C94FD070C94FD0790
:1000E0000C94FD070C94A4170C94971E0C94CA1C36
:1000F0000C94F22D0C94C72D0C948B120C94D92DCA
:100100000C94C5300C94BB300C94B1300C941A2E66
:100110000C94FC2D0C94764A0C94ED1C0C94BB12A0
:100120000C94AC300C94D9300C94991C0C944A2B40
:100130000C94C61C0C946B300C94DE2D0C941B2577
:100140000C94DC150C9487170C94921E0C9479185F
:100150000C941E2C0C94D40E0C94A2300C9492305F
:100160000C949D300C94CF300C94D11D0C943E1007
:100170000C94FB1C0C94F72D0C94A8120C94C71C27
:100180000C94012E0C94E32D0C9455190C94CA3048
:100190000C94102E0C94152E0C94D42D0C949817AE
:1001A0000C94DE300C94E82D0C943B160C94672CC8
:1001B0000C94A7300C9488170C94A0360C94801DD6
:1001C0000C94331D0C94B6300C94820B0C94D430E8
:1001D0000C94E3300C94C0300C94D91C0C94062E73
:1001E0000C940B2E0C945A0C0C940A150C948C2D18
:1001F0000C94ED2D4552524F523A2047534C435FD9
:1002000053445F454E206E6F7420656E61626C656D
:10021000640A0011007F96290001007F9628003AA9
:100220000155C0021010C10141C5040022804036B2
:100230000168B00100B102B011B40102B6030202BC
:100240003BB701C63A0155F704A9512C82B701C644
:10025000E808408A00002919A533C0020D0DC1022B
:100260004300C20100C50400480048B40100B603C1
:1002700002023BE00F0F211C0B0E084998380911B0
:1002800003141000E10F0F2F2B0C0E0647763707D3
:100290001104231E00B00100B30402000000B401E9
:1002A00000D003074218D103000710D2020102D385
:1002B000020102D4020102C005123B000211C10377
:1002C000101088C50103C60102C80C00323645066D
:1002D00016377577540C00CC0100F603010100CFEE
:1002E00003008130ED0464031281E803851078CBAC
:1002F00005392C003402F70120EA020000B00100A9
:10030000B102001BB40100C00121C10111C5023FAF
:100310003CC701B5360148F20100260101E00F0F8C
:1003200026240B0E0954A8460C17090F0700E10FED
:1003300000191B0410072A473903060630380F3608
:100340000100B80101C0010EB00100C1041010028B
:1003500002C006003500000102C50104D2020104FA
:10036000CA0100EA0180B903FF83577F967F96B6E2
:100370000125C0065050013C1E08B4070240002A67
:100380002A0D787F01F20B161603080808081004DE
:100390001616FD03110235B2050C0C003333B701FC
:1003A00035BB012BC00104C20201FFC30111C4010E
:1003B00020C6010FD002A4A1E00ED000050E150D3D
:1003C0003743470915121619E10ED000050D0C062A
:1003D0002D44400E1C1816193A01557F0A060007D5
:1003E00000B1020012B40102B60400202700CA01C5
:1003F00001CB0103C001137F14C501CCC60100C7A6
:100400000104C80103CC0106CD011CF9021515F346
:10041000030A020AF603011000FA00FB00E2031EC1
:100420000254E001017F0AE001037F0A01007F64BA
:10043000E60303FFFFB0072400031F01DF00B40839
:1004400003A0002E30000F00B607020D00101000B0
:1004500008BA010FB8020701F001007F012800115E
:10046000007F642900BE0606F001F00000D0010DF7
:10047000B00103E2013FC00122E20100B00100C06F
:10048000010AB001000000000000000000000000B0
:100490000000000000FFFF0F0000040062080008D9
:1004A000080003000C01030B5A020306090303179B
:1004B000100403002305030017060309630703095B
:1004C0000C08030C10090332221000160011000161
:1004D0000112000000130001000001300301013788
:1004E000020301000D800200610201B0C1FFFF3272
:1004F00000010000010200000103003010090001AA
:10050000000C000000900000800F000000100200AE
:10051000001102EF001202000013028F010005001B
:10052000000105000002055F000104010004040051
:1005300000FFFF320007000001FFFF320000020051
:1005400000010200000000000000000000000000A8
:100550000000000100A4000100FFFF0A006000008D
:100560002708000808300014023100153732000453
:10057000063300160E340011223500001536000730
:100580008537000714380003143900200090001547
:10059000001000100411003702290046002A00460E
:1005A00000070000001200890113000011FFFF96F0
:1005B000001200B901010000010200000203003036
:1005C00010090001000A0000000D0000000E0030BC
:1005D00000610001006A000000800000008100004E
:1005E0000082005F009200000193000107FFFF50AE
:1005F0000007000001E500F07801000001020000A2
:10060000020300301004000000050000000800078D
:1006100002090000000A0000000C0000000D0000AC
:10062000000F000000100000001100070012000081
:10063000001300000007000100FFFFC80010009039
:100640001611002702FFFF320012000D00FFFF32DB
:10065000001300001229000A002B000D00FFFF32DA
:1006600000200000002100000030000000310004E4
:10067000043200030035000504360008083700077F
:100680000438000303390007073C0004053D000857
:100690000860000027610001006A0000008000007F
:1006A0000081000000820000008300000084000040
:1006B0000085000000900010009200000007003349
:1006C00001E50000800000010001000001020000BF
:1006D00007030030100400000008000202090000B7
:1006E000000A0000000C0000000D0000000F0000D8
:1006F00000100000001100070012000000130000AD
:1007000000FFFF32001000B01711000700FFFF0AC2
:100710000012003A01FFFF0A001300001A29000C22
:1007200000FFFF0A00300000003100050532000420
:1007300000350006003600070737000501380002C3
:1007400000390007073C0004073D0007086000006F
:10075000A7610001006A00000021000000200000E5
:100760000080000000810000008200000083000083
:10077000008400000085000000900010009200003E
:1007800000930003009500100197000000980000FE
:100790000007007301FFFF320001000001020000AA
:1007A000070300301008000203090000000A0008D7
:1007B00000100000001100050012000000130000EE
:1007C00000FFFF64001000B012FFFF3200110007AD
:1007D00000FFFF320012008C0013000017290020D8
:1007E00000FFFF320030000000310006013200013E
:1007F000013500060136000302370000003800070B
:1008000007390004023C0006013D000301600000BE
:10081000A7610001009000300007003301FFFF32A4
:1008200000150030009A0010001100200010002870
:10083000341200020013003810FFFF2800120012CB
:1008400000FFFF28001000203413004530FFFF4652
:1008500000300000003100020432000703330004BE
:100860000334000400350001043600070737000593
:1008700003380010063900100601000001020000D4
:100880000303003010080008080A00080060000098
:10089000276100010090003E0192000001930000DA
:1008A00001A0000030A30010000700010007002194
:1008B0000007002300070033000700330111001A6E
:1008C000001200213113006C001400494210000096
:1008D00008FFFF0A0011001A01FFFF0A0011001AA9
:1008E00003FFFF0A0011001A07FFFF0A0011001A98
:1008F0000FFFFF0A0011003A0FFFFF1E0001002842
:10090000010200000103003010070012100800036C
:10091000030B0000110C0000000F0001181500204F
:10092000005000010151000306520008045300006A
:100930000054000506550006045600030357000343
:1009400003580010005900001007001200FFFF2894
:100950000007001300070017002D204E6F20746F52
:100960007563682068616E646C657220656E616293
:100970006C65640A002D20496E6974206469737087
:100980006C61792068616E646C6572205B25735DB3
:10099000204F4B0A00475549736C696365207665A3
:1009A0007273696F6E205B25735D3A0A0000000068
:1009B00000003E5B4F5B3E3E6B4F6B3E1C3E7C3E01
:1009C0001C183C7E3C181C577D571C1C5E7F5E1C0F
:1009D00000183C1800FFE7C3E7FF0018241800FFC9
:1009E000E7DBE7FF30483A060E2629792926407FC3
:1009F000050507407F05253F5A3CE73C5A7F3E1CD2
:100A00001C08081C1C3E7F14227F22145F5F005FBD
:100A10005F06097F017F006689956A60606060609B
:100A200094A2FFA29408047E040810207E201008DF
:100A3000082A1C08081C2A08081E101010100C1E7A
:100A40000C1E0C30383E3830060E3E0E06000000FC
:100A5000000000005F00000007000700147F147F03
:100A600014242A7F2A122313086462364956205020
:100A70000008070300001C2241000041221C002A3C
:100A80001C7F1C2A08083E080800807030000808F7
:100A9000080808000060600020100804023E514968
:100AA000453E00427F400072494949462141494D37
:100AB000331814127F1027454545393C4A494931BE
:100AC00041211109073649494936464949291E003D
:100AD00000140000004034000000081422411414E7
:100AE000141414004122140802015909063E415D04
:100AF000594E7C1211127C7F494949363E41414191
:100B0000227F4141413E7F494949417F090909010D
:100B10003E414151737F0808087F00417F4100201A
:100B200040413F017F081422417F404040407F0206
:100B30001C027F7F0408107F3E4141413E7F09092E
:100B400009063E4151215E7F091929462649494936
:100B50003203017F01033F4040403F1F2040201FE0
:100B60003F4038403F631408146303047804036172
:100B700059494D43007F4141410204081020004182
:100B800041417F040201020440404040400003070D
:100B9000080020545478407F284444383844444462
:100BA00028384444287F385454541800087E0902D9
:100BB00018A4A49C787F0804047800447D40002099
:100BC00040403D007F1028440000417F40007C04ED
:100BD0007804787C080404783844444438FC1824A9
:100BE000241818242418FC7C08040408485454547D
:100BF0002404043F44243C4040207C1C2040201C12
:100C00003C4030403C44281028444C9090907C4418
:100C100064544C4400083641000000770000004155
:100C200036080002010204023C2623263C1EA1A134
:100C300061123A4040207A3854545559215555791B
:100C400041225454784221555478402054557940DB
:100C50000C1E52721239555555593954545459393C
:100C6000555454580000457C410002457D42000126
:100C7000457C407D1211127DF0282528F07C5455CA
:100C800045002054547C547C0A097F493249494923
:100C9000323A4444443A324A4848303A4141217A4F
:100CA0003A42402078009DA0A07D3D4242423D3D19
:100CB0004040403D3C24FF2424487E4943662B2F7E
:100CC000FC2F2BFF0929F620C0887E0903205454ED
:100CD00079410000447D413048484A323840402242
:100CE0007A007A0A0A727D0D19317D2629292F286A
:100CF000262929292630484D4020380808080808A8
:100D0000080808382F10C8ACBA2F102834FA000091
:100D10007B000008142A142222142A1408550055B6
:100D20000055AA55AA55AAFF55FF55FF000000FF20
:100D300000101010FF00141414FF001010FF00FF2B
:100D40001010F010F0141414FC001414F700FF003D
:100D500000FF00FF1414F404FC141417101F1010EB
:100D60001F101F1414141F00101010F000000000BA
:100D70001F101010101F10101010F010000000FFB6
:100D8000101010101010101010FF10000000FF14B1
:100D90000000FF00FF00001F10170000FC04F41407
:100DA000141710171414F404F40000FF00F71414BF
:100DB0001414141414F700F7141414171410101F3B
:100DC000101F141414F4141010F010F000001F1071
:100DD0001F0000001F14000000FC140000F010F0C1
:100DE0001010FF10FF141414FF141010101F000037
:100DF0000000F010FFFFFFFFFFF0F0F0F0F0FFFF4A
:100E0000FF0000000000FFFF0F0F0F0F0F384444DA
:100E10003844FC4A4A4A347E02020606027E027EBA
:100E20000263554941633844443C04407E201E20FF
:100E300006027E020299A5E7A5991C2A492A1C4CA4
:100E40007201724C304A4D4D303048784830BC62A7
:100E50005A463D3E494949007E0101017E2A2A2A1F
:100E60002A2A44445F444440514A444040444A5141
:100E7000400000FF0103E080FF000008086B6B08E2
:100E80003612362436060F090F0600001818000027
:100E9000001010003040FF0101001F01011E001969
:100EA0001D1712003C3C3C3C000000000045525223
:100EB0004F523A20476574584461746146726F6DB1
:100EC00052656628547970652025642C204C696E23
:100ED000652025642920705844617461206973205D
:100EE0004E554C4C0A004552524F523A20476574B9
:100EF000584461746146726F6D526566285479700A
:100F0000652025642C204C696E65202564292045C8
:100F10006C656D2074797065206D69736D617463A3
:100F2000680A004552524F523A204765745844614E
:100F3000746146726F6D526566285479706520251C
:100F4000642C204C696E65202564292070456C65F1
:100F50006D206973204E554C4C0A004552524F5239
:100F60003A20476574584461746146726F6D5265EA
:100F70006628547970652025642C204C696E6520A4
:100F80002564292070456C656D5265662069732063
:100F90004E554C4C0A00764A11241FBECFEFD1E2C9
:100FA000DEBFCDBF00E00CBF14E0A0E0B2E0EAE796
:100FB000F2EB00E00BBF02C007900D92A039B10721
:100FC000D9F721E1A0E9B4E001C01D92AC39B20724
:100FD000E1F717E0CCECD7E000E006C0219701096B
:100FE000802FFE010E940156CB3CD10780E008070C
:100FF000A9F70E94C94A0C943B590C940000FC01CB
:10100000A0918C10B0918D10892BD1F420912810D3
:101010003091291080912A1090912B1014961C92D7
:101020001E92139716961C921E92159718963C9333
:101030002E9317971A969C938E93199781E0089593
:1010400098E0139601900D929A95E1F7F7CF1092E0
:10105000BA1088E0ECE8F2E0ABEBB0E101900D9261
:101060008A95E1F7089520918011309181110097C0
:1010700089F0232B51F420917511309176112A5F5C
:101080003F4F309376112093751190938111809387
:1010900080110895232BC9F3209175113091761199
:1010A00026503109EECF2F923F924F925F926F926E
:1010B0007F928F929F92AF92BF92CF92DF92EF92E8
:1010C000FF920F931F93CF93DF93CDB7DEB76D974A
:1010D0000FB6F894DEBF0FBECDBF7A8769875C87F5
:1010E0004B873E872D87188B0F87FB01118210825B
:1010F000FA0111821082F80111821082F901118225
:101100001082209080113090811120917E112C83CB
:10111000F0907B112F2D30E0388F2F8B46E0F49E1E
:10112000900111243E832D83A0906F11B090701117
:10113000E0907C11E8E0EE9E6001112491012C5FAB
:101140003F4F3A8B298B2E5F3F4F3C8B2B8B24508C
:1011500031093A8F298F2A5F3F4F3B832A83988733
:101160008F8344244A94542CAFEFBFEF8FEF9FE757
:101170009C8F8B8F0FEF1FE770E060E050E040E046
:10118000EF81F8858191F887EF83882309F4C0C047
:101190002114310409F487C08A3041F4EA81FB81CB
:1011A00084918E9D600D711D1124E8CF8D3041F327
:1011B000E989FA899491EB89FC892491891700F3D4
:1011C0002817F0F2E98DFA8D25913491891BF7E00B
:1011D0008F9F200D311D1124F9013296849189834E
:1011E000319694919D8B319684918E8B319684911A
:1011F0002A5F3F4FF901F491FD8F2C812223F1F0FA
:101200003981632E712C680E711C87FD7A942F89A9
:10121000388D629E4001639E900C729E900C11244A
:10122000840E951EA814B9044CF4EA81FB819491B4
:101230009E9D600D711D112450E040E02F2D382F30
:101240003203C0011124840F951F2E2D3D8D3203D2
:10125000F00111249F01260F371F801791070CF40E
:101260008C01EB8DFC8D2E173F0714F43C8F2B8FD8
:10127000F981FF9D800D911D11240197A817B907D1
:101280000CF4DC018D898E9D200D311D112421501F
:101290003109421653060CF429019E899F9D400D89
:1012A000511D11246DCF8A3019F46C0D7D1D66CF50
:1012B0008D3009F465CF2C81222359F08D819E81D8
:1012C000840F951FA816B90624F46C0D7D1D50E0FF
:1012D00040E02D813E81240F351FC9010197A817D9
:1012E000B9070CF4DC01C601860F971F0197481659
:1012F00059060CF42C01401751070CF48A018B8D10
:101300009C8D6817790714F47C8F6B8FA90138CFF7
:10131000A017B1075CF0E985FA8511830083A01B53
:10132000B10B1196ED85FE85B183A0832B8D3C8D8D
:10133000421653066CF0EB85FC8531832083421AFC
:10134000530AFFEF4F1A5F0AEF85F88951824082F6
:101350006D960FB6F894DEBF0FBECDBFDF91CF9173
:101360001F910F91FF90EF90DF90CF90BF90AF90C3
:101370009F908F907F906F905F904F903F902F90B5
:101380000895FC01892BF1F0808191818260918325
:1013900080832281338120313105A1F084819581C0
:1013A0008031910579F02133384F29F480E190E0C4
:1013B0009383828308958133984F21F480E190E0F4
:1013C0009583848308958B988A98209102012778C9
:1013D00020930201A5982EB1277C2EB970910201AD
:1013E000292F30E0F901A5E0EE0FFF1FAA95E1F7E4
:1013F000E076E72BE09302017EB1F901EE0FFF1FCB
:10140000EE0FFF1FE073E72BEEB974B3F901EE0F97
:10141000FF1FE072E72BE4BB7EB1F901F595E7957C
:10142000F595E795E870E72BEEB970910201E3E0DE
:1014300035952795EA95E1F72871272B209302012E
:101440008998899A20910201277820930201A59812
:101450002EB1277C2EB9709102019C01F5E0880F16
:10146000991FFA95E1F78076872B809302017EB170
:10147000C901880F991F880F991F8073872B8EB918
:1014800074B3C901880F991F8072872B84BB7EB10A
:10149000C90195958795959587958870872B8EB905
:1014A00080910201F3E035952795FA95E1F72871CF
:1014B000282B209302018998899A8A9AFA0161500F
:1014C00008F43EC0819190910201977890930201B7
:1014D000A5989EB1977C9EB94091020190E09C0135
:1014E00055E0220F331F5A95E1F72076242B2093E5
:1014F00002014EB19C01220F331F220F331F2073B4
:10150000242B2EB944B39C01220F331F2072242BAD
:1015100024BB4EB19C0135952795359527952870AC
:10152000242B2EB92091020133E0959587953A95A9
:10153000E1F78871822B809302018998899ABFCF45
:101540008B9A08958B988A98E2E0F1E020812778C1
:101550002083A5982EB1277C2EB9A081292F30E0B9
:10156000A901B5E0440F551FBA95E1F740764A2B23
:101570004083AEB1A901440F551F440F551F40735E
:101580004A2B4EB9A4B3A901440F551F40724A2BF0
:1015900044BBAEB1A90155954795559547954870FF
:1015A0004A2B4EB9408153E0359527955A95E1F77E
:1015B0002871242B20838998899A20812778208379
:1015C000A5982EB1277C2EB940819C01A5E0880FFB
:1015D000991FAA95E1F78076842B80834EB1C901CB
:1015E000880F991F880F991F8073842B8EB944B37D
:1015F000C901880F991F8072842B84BB4EB1C90129
:1016000095958795959587958870842B8EB980815F
:10161000B3E035952795BA95E1F72871282B2083FB
:101620008998899A8A9A808187788083A5988EB1D3
:10163000877C8EB94081872F90E09C0155E0220F76
:10164000331F5A95E1F72076242B20834EB19C015D
:10165000220F331F220F331F2073242B2EB944B3C4
:101660009C01220F331F2072242B24BB4EB19C01FE
:1016700035952795359527952870242B2EB92081EF
:10168000A3E095958795AA95E1F78871822B8083D1
:101690008998899A808187788083A5988EB1877C84
:1016A0008EB94081CB019B01B5E0220F331FBA9563
:1016B000E1F72076242B20834EB19B01220F331FAC
:1016C000220F331F2073242B2EB944B39B01220F0A
:1016D000331F2072242B24BB4EB19C0135952795D6
:1016E000359527952870242B2EB92081A3E0959558
:1016F0008795AA95E1F78871822B80838998899ACA
:101700008B9A0895FC01262F358D868D82958170E8
:10171000982F9627692F70E072A361A330FF0CC049
:10172000821307C080E290E050E040E060E00C945B
:10173000E30981E290E0F8CF878D90A1833927E714
:10174000920741F058F4843521E0920791F08032FD
:101750009445C1F4626081E094E012C0863223E9CE
:101760009207C1F3893025EB9207A1F385329249A4
:1017700049F4660F771F660F771F636187E090E07B
:101780000C94A20A81E690E0FBCF8F929F92AF92D9
:10179000BF92CF92DF92EF92FF920F931F93CF935E
:1017A000DF9300D01F92CDB7DEB77C014B015A0109
:1017B0006901FC01878D90A18632954151F4F701B2
:1017C000868980FF06C0C801841B950B81F50F5FD9
:1017D0001F4FF701858D80FF31C085A599828A82D0
:1017E000DB82CC82AE014F5F5F4F64E090E00E94ED
:1017F000E309F70181A9B982AA821B830C83AE0198
:101800004F5F5F4F64E090E00E94E3090F900F90FC
:101810000F900F90DF91CF911F910F91FF90EF905C
:10182000DF90CF90BF90AF909F908F900895261734
:10183000370779F6C80ED91E8A01CBCFB40187A12C
:1018400090A50E94A20AB501F70181A592A50E9468
:10185000A20AC814D90419F40A151B05B9F2F70134
:10186000858D85FF08C0868980FF1EC0102F002748
:10187000A02AB12A8501B401F70185A596A50E9489
:10188000A20AB501F70181A992A90E94A20AB60194
:10189000F70187A590A90E94A20AB801F70183A9C0
:1018A00094A90E94A20AB2CFDC2CCC248C289D28BB
:1018B0006401E1CF2F923F924F925F926F927F929D
:1018C0008F929F92AF92BF92CF92DF92EF92FF9250
:1018D0000F931F93CF93DF9300D01F921F92CDB72A
:1018E000DEB79D838C8380912610882349F0C70141
:1018F000880F991F8E739927E1ECEE22E82AF92AC6
:1019000037FF05C0620F731F319521953109260FEE
:10191000371F77FF02C070E060E0EC81FD818085B9
:101920009185281739070CF4C9016C01C61AD70A2A
:1019300017FF05C0400F511F119501951109040FA4
:10194000151F57FF02C050E040E0EC81FD81228569
:101950003385021713070CF498015901A41AB50A2C
:101960008901015011099C01215031098C819D810F
:101970000E94C50B8B988A98EC81FD8153A544A5E4
:1019800080910201877880930201A5988EB1877CAF
:101990008EB960910201842F90E09C01A5E0220F96
:1019A000331FAA95E1F72076262B209302016EB112
:1019B0009C01220F331F220F331F2073262B2EB9B9
:1019C00064B39C01220F331F2072262B24BB6EB1FF
:1019D0009C0135952795359527952870262B2EB98E
:1019E0002091020133E0959587953A95E1F788714A
:1019F000822B809302018998899A809102018778CD
:101A000080930201A5988EB1877C8EB96091020106
:101A1000852F942F9C0145E0220F331F4A95E1F753
:101A20002076262B209302014EB19C01220F331FFA
:101A3000220F331F2073242B2EB944B39C01220F95
:101A4000331F2072242B24BB4EB19C013595279562
:101A5000359527952870242B2EB920910201E3E0BB
:101A600095958795EA95E1F78871822B809302011D
:101A70008998899A8A9ACA14DB042CF09A2D8B2DA6
:101A80005601C92ED82E2F2D30E0890185E0000F98
:101A9000111F8A95E1F70076C901880F991F880FF9
:101AA000991F182F1073C901880F991FB82FB07292
:101AB000C9019595879595958795982F987073E0AE
:101AC000359527957A95E1F7822F8871A701E5E092
:101AD000440F551FEA95E1F740769701220F331F17
:101AE000220F331F522F5073B701660F771F60729A
:101AF00097013595279535952795722F7870970121
:101B0000E3E035952795EA95E1F7A22FA8712F2DEF
:101B1000287F30E04901880C991C880C991CF82D0D
:101B2000F073F9834901880C991CE82DE072EA836F
:101B300049019594879495948794F82DF870FB83C8
:101B4000E3E035952795EA95E1F7E22FE8712E2E2F
:101B50009701F3E036952795FA95E1F72C7F30E071
:101B60004901880C991C880C991CF82DF0733F2EA4
:101B70002901440C551CE42DE0724E2E4901959428
:101B8000879495948794F82DF8705F2EF3E035953F
:101B90002795FA95E1F7E22FE8716E2EEE0CEE0C28
:101BA000EE0CF12C9701220F331F220F331FF22F5F
:101BB000F0737F2E9701220F331F2072F701F595E6
:101BC000E795F595E795E870F3E0F594E794FA95D5
:101BD000E1F73E2D3871E32E1C141D040CF0ABC050
:101BE000309125104501332309F463C0309102017F
:101BF000377830930201A5983EB1377C3EB93091D9
:101C00000201309302013EB1F9813F2B3EB934B35A
:101C1000FA813F2B34BB3EB1FB813F2B3EB9309163
:101C200002013229309302018998899A3091020188
:101C3000377830930201A5983EB1377C3EB9309198
:101C40000201309302013EB133293EB934B3342945
:101C500034BB3EB135293EB930910201362930936B
:101C600002018998899A30910201377830930201F4
:101C7000A5983EB1377C3EB9309102013093020104
:101C80003EB137293EB934B3322B34BB3EB13E2B83
:101C90003EB9309102013E29309302018998899A18
:101CA00031E0831A910809F0A1CFF1E0CF1AD108F1
:101CB00093CF30910201377830930201A5983EB15D
:101CC000377C3EB930910201302B309302013EB196
:101CD000312B3EB934B33B2B34BB3EB1392B3EB92B
:101CE00030910201382B309302018998899A309102
:101CF0000201377830930201A5983EB1377C3EB996
:101D000030910201342B309302013EB1352B3EB9A4
:101D100034B3362B34BB3EB1372B3EB93091020180
:101D20003A2B309302018998899AF1E08F1A910831
:101D300009F0BFCFBACF8B9AEC81FD81858D80FFF2
:101D40000AC0878D90A186329541B1F4EC81FD8166
:101D5000868980FF11C0EC81FD81028513850150C9
:101D60001109208531852150310950E040E070E0B3
:101D700060E0CF010E94C50B0F900F900F900F9065
:101D80000F90DF91CF911F910F91FF90EF90DF9017
:101D9000CF90BF90AF909F908F907F906F905F900B
:101DA0004F903F902F900895EF92FF920F931F93C3
:101DB000CF93DF937C01E90177FD4DC157FD4BC106
:101DC000FC0180859185681779070CF044C18285F4
:101DD0009385481759070CF03EC18091261088233F
:101DE00041F0C901880F991F8E739927C17CC82BB8
:101DF000D92B8A019B01C7010E94C50B8091251038
:101E0000882309F42FC18B988A98F70143A554A51C
:101E100080910201877880930201A5988EB1877C1A
:101E20008EB960910201852F90E09C0175E0220F30
:101E3000331F7A95E1F72076262B209302016EB1AD
:101E40009C01220F331F220F331F2073262B2EB924
:101E500064B39C01220F331F2072262B24BB6EB16A
:101E60009C0135952795359527952870262B2EB9F9
:101E700020910201B3E095958795BA95E1F78871B5
:101E8000822B809302018998899A80910201877838
:101E900080930201A5988EB1877C8EB96091020172
:101EA000CA019C0115E0220F331F1A95E1F7207635
:101EB000262B209302014EB19C01220F331F220FCB
:101EC000331F2073242B2EB944B39C01220F331FE0
:101ED0002072242B24BB4EB19C0135952795359556
:101EE00027952870242B2EB92091020173E0959537
:101EF00087957A95E1F78871822B80930201899802
:101F0000899A8A9A80910201877880930201A59824
:101F10008EB1877C8EB9209102018D2F887F90E051
:101F2000209302014EB19C01220F331F220F331F59
:101F30002073242B2EB944B39C01220F331F20722F
:101F4000242B24BB4EB19C013595279535952795BB
:101F50002870242B2EB920910201B3E09595879526
:101F6000BA95E1F78871822B809302018998899A4A
:101F700080910201877880930201A5988EB1877CB9
:101F80008EB920910201CE01D3E096958795DA951E
:101F9000E1F78C7F90E0209302014EB19C01220F6B
:101FA000331F220F331F2073242B2EB944B39C01FF
:101FB000220F331F2072242B24BB4EB19C01359578
:101FC0002795359527952870242B2EB9209102014D
:101FD00063E0959587956A95E1F78871822B8093E8
:101FE00002018998899A8091020187788093020181
:101FF000A5988EB1877C8EB980910201CC0FCC0F51
:10200000CC0FD0E0809302012EB1CE01880F991F32
:10201000880F991F8073822B8EB924B3CE01880F4D
:10202000991F8072822B84BB2EB1CE019595879526
:10203000959587958870822B8EB980910201A3E0D7
:10204000D595C795AA95E1F7C871C82BC093020131
:102050008998899A8B9ADF91CF911F910F91FF9068
:10206000EF900895BE01F70183A594A5DF91CF916C
:102070001F910F91FF90EF900C94A20AEF92FF92A4
:102080000F931F93CF93DF9300D000D000D01F9207
:10209000CDB7DEB77C01862F8370F701868B962F34
:1020A000917060FFE3C026813781F7013187208777
:1020B000992309F4DEC024813581F7013387228713
:1020C000823009F4DBC0833009F4DAC0813009F4CE
:1020D000D3C088E48A87F701858D968D90FF03C071
:1020E0002A8520582A8791FF04C02A8530E42327B7
:1020F0002A8793FF04C02A8538E023272A87F7011F
:10210000278D30A180FF00C12431F8E63F0709F098
:10211000B9C09A85892F88728A871F82892F8595F1
:102120008074282F2260892F90E095958795807282
:102130009927822B88878BE38987AE01495F5F4FA0
:1021400063E086EB90E00E94E3092AE230E0F701C9
:1021500030A727A38BE290E092A781A74CE250E042
:1021600054A743A736A725A730AB27A792AB81ABCF
:1021700094AB83ABAE01465F5F4F61E086E390E0D6
:102180000E94E3098A8590E0F70194A383A3F701F5
:10219000868980FF1CC0858D968D92FD18C087A111
:1021A00090A521A532A530A727A392A781A785A531
:1021B00096A521A932A936A725A792AB81AB87A501
:1021C00090A923A934A930AB27A794AB83ABF7011F
:1021D000028513850150110920853185215031096F
:1021E00050E040E070E060E0C7010E94C50BF701DD
:1021F00066817781878D90A120E08732F3E99F0780
:1022000009F420E2F701358D30FF39C119821A82B5
:102210007B836C831D822E83AE014F5F5F4F66E030
:1022200083E390E00E94E30919821A82AE014F5FB6
:102230005F4F62E087E390E00E94E309F701858D3C
:1022400080FF07C050E040E060E083E190E00E9442
:10225000E3092A960FB6F894DEBF0FBECDBFDF911B
:10226000CF911F910F91FF90EF90089524813581B8
:102270001CCF2681378121CF88E22CCF88E92ACF55
:1022800088EF28CF273243E9340789F41F8281E39E
:1022900088878A85859585958595859588708987B0
:1022A000AE01495F5F4F63E080EC90E04CCF233696
:1022B00089E1380749F02138E4E93E0729F0213166
:1022C000F5E13F0709F041CF8A8587FF02C08160B1
:1022D0008A878A8586FF02C082608A878A858F7393
:1022E000233649E1340731F0213884E9380721F4F5
:1022F0008A858F728A8729CF2131354109F025CF10
:102300008A858F7E806CF6CF6A85862F062E000C1C
:10231000990B2339F7E73F0751F0A8F52435E1E0A1
:102320003E0709F45CC02032F4E53F07A1F540E028
:1023300052E0F70150A747A341E052E052A741A75E
:1023400042E052E054A743A740E152E056A745A718
:1023500041E152E050AB47A742E152E052AB41AB02
:1023600043E152E054AB43AB882790782632F3E93F
:102370003F0721F02032344509F071C067FD8460C9
:1023800060E071E36EC0263243E9340781F2293000
:10239000E5EB3E0761F220E230E0F70130A727A32A
:1023A00021E230E032A721A722E230E034A723A7C0
:1023B00020E530E036A725A721E530E030AB27A7A0
:1023C00022E530E032AB21AB23E530E034AB23AB88
:1023D000BC0166277078776280E690E046C027E30C
:1023E00030E0F70136A725A726E330E030AB27A77A
:1023F00029E330E032AB21AB28E330E034AB23AB50
:1024000020E230E030A727A321E230E032A721A765
:1024100022E230E034A723A7F4E06F9FB00111243B
:1024200066277170882792708862682B792B81E00B
:1024300090E00E94A20A8A85682F70E075956795E2
:10244000759567956870772783FD70616063F70104
:1024500074A363A383E090E00E94A20A98CE60E098
:1024600072E6682B792B80E094E00E94A20A6A85CC
:10247000F4E06F9FB001112466277170D8CF8339C3
:10248000F7E79F07D9F1F0F4803244E59407B1F102
:102490008338E7E79E0731F184359140F1F46150CC
:1024A000710981E390E00E94A20A70E060E082E39B
:1024B00090E00E94A20A70E060E083E390E00E9456
:1024C000A20AC7CE863223E99207C1F0893045EBD4
:1024D0009407A1F08532924911F3F70161A172A12D
:1024E000626003C0F70161A172A181E690E00E94E1
:1024F000A20A70E060E08AE690E0E1CFF70161A116
:1025000072A1626081E094E00E94A20A70E060E043
:1025100084E094E0D4CFEF92FF920F931F93DC01FD
:102520001A960D911C911B9718962D913C91199715
:10253000ED91FC9100A0F1A1E02D7B0150E040E085
:1025400070E060E019951F910F91FF90EF90089552
:10255000EF92FF920F931F93DC01ED91FC9100A08D
:10256000F1A1E02D780101E010E019951F910F9184
:10257000FF90EF900895EF92FF920F931F93DC016D
:10258000ED91FC9100A0F1A1E02D7801890121E0FD
:1025900030E019951F910F91FF90EF9008950895E5
:1025A000FC016370668B848195812681378161305F
:1025B00039F0633029F09187808733872287089527
:1025C000318720879387828708952F923F924F9279
:1025D0005F926F927F928F929F92AF92BF92CF92B3
:1025E000DF92EF92FF920F931F93CF93DF93CDB7BC
:1025F000DEB76A970FB6F894DEBF0FBECDBF9A8FD5
:10260000898F7A8369834A01D22E18870F83370115
:10261000BC2CDC0159962D913C915A97211531051E
:1026200009F015C118968D919C9119976817790733
:102630000CF0D7C11A968D919C91481759070CF050
:10264000D0C14C2C512CB6E0CB9E600D711D1124D5
:102650007C876B87161617060CF0C3C1EA2DF0E0D5
:10266000FA87E98793E0EE0FFF1F9A95E1F7F88B61
:10267000EF87CF01840F951F181619060CF0B1C112
:10268000A98DBA8D58968C91811104C0BFEABD15F1
:1026900008F4D394A98DBA8DED91FC911197028421
:1026A000F385E02DCD011995B5E0DB9EC001112425
:1026B000E981FA81FC83EB83312C212C9C01235589
:1026C000364F388F2F8B4A2D50E05E8B4D8BEF8924
:1026D000F88DE20DF31D44919E828D82D12CC12C88
:1026E00069817A81620D731D7A8B698B842F90E0EA
:1026F0009C8B8B8BE98DFA8DA081B18140FF82C0CC
:10270000F1E0BF126FC0AF126DC01C96ED91FC914D
:102710002F813885A4014C0D5D1D69897A89898DC9
:102720009A8D1995EB89FC89F595E7954E2F5FEF0A
:10273000C51AD50A6D817E818D899E89680F791FA2
:102740007E836D8398E0C916D10481F6AFEF2A1A13
:102750003A0AEB81FC81E40DF51DFC83EB83F5E087
:102760002F16310409F0B3CF2F8138852615370590
:10277000B9F0A98DBA8DED91FC91B1E0BB1257C0B3
:10278000AB1255C069817A816B5F7F4F0088F189F8
:10279000E02D830128E030E0A401898D9A8D199500
:1027A000A98DBA8DED91FC9111970688F789E02DDE
:1027B000CD016A960FB6F894DEBF0FBECDBFDF9194
:1027C000CF911F910F91FF90EF90DF90CF90BF902E
:1027D000AF909F908F907F906F905F904F903F90C1
:1027E0002F9019941E96ED91FC91EF80F884098545
:1027F0001A8592014D815E816B817C81898D9A8DD4
:10280000199590CF2F8138852615370509F48ACF81
:1028100031E0B31207C0A31205C01C96ED91FC91E4
:10282000930178CF1E96ED91FC917301E0CF6B85FB
:102830007C85641975090684F785E02D73010F8581
:1028400018899201A401898D9A8D1995A9CFF90152
:1028500034969491329745915491D91AB7E0DB9E02
:10286000400D511D1124F901259134913C8B2B8B86
:10287000FA0125903490FA01329674903196349191
:10288000398B329664903196449041E04C1518F0A3
:102890004A1508F07FC0662D062C000C770B7C8350
:1028A0006B83842D042C000C990B9E838D83A98D42
:1028B000BA8DED91FC9111970284F385E02DCD0145
:1028C0001995512CD12CC12CEA2DF0E0FA87E9871B
:1028D0002B2D30E03C872B87A401440D511D47FC74
:1028E0005A95588F4F8B69817A81660D711D67FCEF
:1028F0007A957E876D877989C71608F051CF2C2D80
:1029000030E04D815E81420F531FA985BA854A9FF1
:10291000C0014B9F900D5A9F900D1124FC01E80DB2
:10292000F91DF88BEF87852D612C4F89588D420F4B
:10293000531F5E8B4D8B671408F050C044244394A2
:10294000480E877041F4C1010196EB89FC89E20DC4
:10295000F31DD4901C01D7FE19C0A98DBA8DED913D
:10296000FC91662D70E0B1E0BB1219C0AB1217C02C
:102970002D853E85620F731F0484F585E02D2F8120
:1029800038854D895E89898D9A8D1995DD0C639402
:10299000842DD1CF1E821D821C821B8288CF4B8149
:1029A0005C81640F751FAB85BC856A9FC0016B9FFE
:1029B000900D7A9F900D112469817A81680F791F9B
:1029C0000684F785E02DEF80F88409851A859D013E
:1029D0004F855889898D9A8D1995D8CF570CC394F6
:1029E0008ACF6A960FB6F894DEBF0FBECDBFDF91D7
:1029F000CF911F910F91FF90EF90DF90CF90BF90FC
:102A0000AF909F908F907F906F905F904F903F908E
:102A10002F9008958F929F92AF92CF92EF92FF9254
:102A20000F931F93CF93DF93EC01262F898D9A8DFF
:102A3000009709F051C06A30D1F41D861C868D893B
:102A400048E0849F900111248E859F85820F931FFB
:102A50009F878E8781E090E0DF91CF911F910F914A
:102A6000FF90EF90CF90AF909F908F9008956D3032
:102A700089F3CC88AD888F898823C1F08C859D85AA
:102A800036E0C39E800D911D112448855985481755
:102A9000590764F44E855F851D861C8638E0A39E29
:102AA000C0011124840F951F9F878E87EA88FB88B9
:102AB000088919894E855F856C857D85CE010E94C8
:102AC000E5122C898C859D8546E0249F800D911D03
:102AD00011249D878C87BECF6A3069F41D861C86C1
:102AE000FC013896E4912D898E859F85E29F800DAB
:102AF000911D1124ADCF6D3009F4ACCFFC0134969B
:102B00003491631708F4A6CF3296E491E61708F4DF
:102B1000A1CFFC01329685909490462F431B342F11
:102B200047E0349F800C911C1124F40132963491BB
:102B30003196E4913323A9F1EE2399F1CC88F40185
:102B40003596E491AD884F89442301F10E2E000C97
:102B5000FF0BE30FF11DCE9EA001CF9E500D11245F
:102B60006C857D85460F571F6885798564177507C5
:102B70006CF44E855F851D861C86FC013896E491B9
:102B8000AE9E400D511D11245F874E87EA88FB8859
:102B9000088919894E855F856C857D85CE010E94E7
:102BA000E512F4013496E4912C898C859D85E29F91
:102BB000800D911D11248DCF6F927F928F929F92E5
:102BC000AF92BF92CF92DF92EF92FF920F931F933B
:102BD000CF93DF93EC016B015A0139014801E88181
:102BE000F9810284F385E02D1995E881F981028845
:102BF000F389E02D87019301A501B601CE01199556
:102C0000A501480D591D41505109E881F9810288FB
:102C1000F389E02D9301B601CE011995E881F98180
:102C20000088F189E02D9401A501B601CE01199526
:102C3000C60CD71CB60161507109E881F981008882
:102C4000F189E02D9401A501CE011995E881F98162
:102C50000688F789E02DCE01DF91CF911F910F916A
:102C6000FF90EF90DF90CF90BF90AF909F908F90AC
:102C70007F906F9019946F927F928F929F92AF92F4
:102C8000BF92CF92DF92EF92FF920F931F93CF9359
:102C9000DF935C01EB016A01490138018701DC0126
:102CA000ED91FC916217730719F5641675062CF007
:102CB000962D872D3A01C92ED82E9601261937094F
:102CC0002F5F3F4F048CF58DE02DA301BE01C501A0
:102CD0001995DF91CF911F910F91FF90EF90DF90A9
:102CE000CF90BF90AF909F908F907F906F900895FE
:102CF0004615570591F42617370724F0892D4B0107
:102D0000C22FD82F9E01281939092F5F3F4F068CFB
:102D1000F78DE02DA601B401DACF0284F385E02D12
:102D20001995D501ED91FC910488F589E02D830179
:102D30009401A601BE01C5011995D501ED91FC9143
:102D40000688F789E02DC501DF91CF911F910F9182
:102D5000FF90EF90DF90CF90BF90AF909F908F90BB
:102D60007F906F901994EF92FF920F931F93DC0165
:102D70001A960D911C911B9718962D913C911997BD
:102D8000ED91FC9100A0F1A1E02D7B0150E040E02D
:102D900070E060E019951F910F91FF90EF900895FA
:102DA0004F925F926F927F928F929F92AF92BF925B
:102DB000CF92DF92EF92FF920F931F93CF93DF9307
:102DC0006C012B015A0139014801DC01ED91FC91A4
:102DD0000284F385E02D1995E201640C751CD6017F
:102DE000ED91FC91C615D7055CF40088F189E02DC2
:102DF00087019401A501BE01C60119952196EFCF67
:102E00000688F789E02DC601DF91CF911F910F91C0
:102E1000FF90EF90DF90CF90BF90AF909F908F90FA
:102E20007F906F905F904F9019948F929F92AF9286
:102E3000BF92CF92DF92EF92FF920F931F93CF93A7
:102E4000DF93EC015B014A016901E881F9810284A9
:102E5000F385E02D199595012C0D3D1D215031096B
:102E6000E881F9810488F589E02D78018401A401C5
:102E7000B501CE011995E881F9810688F789E02D21
:102E8000CE01DF91CF911F910F91FF90EF90DF90D6
:102E9000CF90BF90AF909F908F9019948F929F92F8
:102EA000AF92BF92CF92DF92EF92FF920F931F9358
:102EB000CF93DF93EC015B014A0169017801E8815E
:102EC000F9810284F385E02D1995C80CD91C86017F
:102ED00001501109E881F9810488F589E02D9501F7
:102EE000A401B501CE011995E881F9810688F78919
:102EF000E02DCE01DF91CF911F910F91FF90EF90C8
:102F0000DF90CF90BF90AF909F908F9019940895CD
:102F1000EF92FF920F931F93DC01ED91FC9100A0C3
:102F2000F1A1E02D19951F910F91FF90EF90089559
:102F30000F931F93DC01ED91FC91068CF78DE02D32
:102F400019951F910F9108950F931F93DC01ED9137
:102F5000FC91048CF58DE02D19951F910F9108952A
:102F60002F923F924F925F926F927F928F929F9299
:102F7000AF92BF92CF92DF92EF92FF920F931F9387
:102F8000CF93DF9300D000D000D01F921F92CDB717
:102F9000DEB73C017E836D835B874A872F832801E0
:102FA000170181E090E06C01C41AD50ACA0191951D
:102FB000819591099C01220F331F3A832983C8010F
:102FC00001969C838B83F12CE12C88248394912C93
:102FD0009B012F5F3F4F398728878A859B85E8169D
:102FE000F9060CF06DC0AA84BB84D7FC0CC05C0150
:102FF00091E0A91AB10829813A812E5F3F4F3A83A7
:103000002983C20ED31E3FEFE31AF30A82E0880E33
:10301000911CC80CD91CAE14BF0444F42A853B850E
:103020002A153B05D1F4BB86AA86D7CF9501220F7E
:10303000331F4D815E814A195B098F81813019F5FB
:103040008B819C81280F391F8101B701660D771D87
:1030500087E691E10E94A417E1CF9F81913029F585
:10306000940122503109240D351D6A857B85660D3A
:10307000771D8101488559854E195F0987E691E1E1
:103080000E94A417D0CF8B819C81280F391F81010A
:10309000B3016E197F0987E691E10E94A4172A8582
:1030A0003B852A153B0509F4BECF94012250310916
:1030B000240D351DB3018A859B85681B790BD9CFFB
:1030C0002B960FB6F894DEBF0FBECDBFDF91CF9128
:1030D0001F910F91FF90EF90DF90CF90BF90AF9036
:1030E0009F908F907F906F905F904F903F902F9028
:1030F0000895DC01ED91FC910084F185E02D199497
:103100002F923F924F925F926F927F928F929F92F7
:10311000AF92BF92CF92DF92EF92FF920F931F93E5
:10312000CF93DF9300D01F92CDB7DEB76C015B0168
:103130005C834B8381E090E04C01841A950A2A015C
:10314000519441945108440C551CF12CE12C6624F7
:103150006394712C422F44704983522F52705A83CA
:10316000822F8870282E2170322E4B815C81E416CC
:10317000F5060CF083C097FC09C0415051095C83EF
:103180004B8352E0450E511C840C951C8FEFE81ABE
:10319000F80A92E0690E711C860C971C4981442341
:1031A000C1F098014B815C814A0D5B1DB6016E0D2B
:1031B0007F1D87E691E10E9479189801A5014E0DC7
:1031C0005F1D6B817C816C0D7D1D87E691E10E9406
:1031D00079185A815523C9F09801A5018B819C81EA
:1031E000481B590BB6016E0D7F1D87E691E10E94C9
:1031F00079189801A5014E195F096B817C816C0DCE
:103200007D1D87E691E10E9479182220C9F098017E
:10321000A5014E0D5F1DB6018B819C81681B790B4A
:1032200087E691E10E94791898014B815C814A0DF3
:103230005B1DB6016E197F0987E691E10E9479183E
:10324000332009F492CF9801A5014E195F09B60108
:103250008B819C81681B790B87E691E10E9479182C
:103260009801A5018B819C81481B590BB6016E19F1
:103270007F0987E691E10E94791877CF0F900F9030
:103280000F900F90DF91CF911F910F91FF90EF90D2
:10329000DF90CF90BF90AF909F908F907F906F9076
:1032A0005F904F903F902F9008952F923F924F92B2
:1032B0005F926F927F928F929F92AF92BF92CF92C6
:1032C000DF92EF92FF920F931F93CF93DF9300D083
:1032D00000D0CDB7DEB73C016A013E832D83FC826E
:1032E000EB825801A41AB50AB7FE03C0B194A194A9
:1032F000B1088D809E80861A970A97FE03C091942C
:10330000819491088A149B045CF0902F812F0D8189
:103310001E819D838E839C2D8D2D6B01692F782FAF
:103320000C151D055CF09D818E817E836D83692F58
:10333000782F902F812F8601C92ED82E1601201AA2
:10334000310A2B012D813E81421A530A57FE03C0D8
:10335000519441945108710137FE03C03FEFE31AC5
:10336000F30AF594E7948D819E81861797075CF5A3
:10337000A1E0B0E0BA83A983C016D1064CF1D30115
:10338000ED91FC910484F585E02D2B813C81A80111
:103390006D817E818A149B041CF04D815E81B80191
:1033A000C3011995E418F508F7FE0AC02D813E8186
:1033B00089819A81280F391F3E832D83E20CF31CEB
:1033C0000F5F1F4FD9CF2FEF3FEF3A832983D4CF21
:1033D00026960FB6F894DEBF0FBECDBFDF91CF911A
:1033E0001F910F91FF90EF90DF90CF90BF90AF9023
:1033F0009F908F907F906F905F904F903F902F9015
:1034000008953FB7F8948091211090912210A091D7
:103410002310B091241026B5A89B05C02F3F19F0AA
:103420000196A11DB11D3FBFBA2FA92F982F882744
:10343000BC01CD01620F711D811D911D42E0660F1F
:10344000771F881F991F4A95D1F708958F929F92F1
:10345000AF92BF92CF92DF92EF92FF926B017C010D
:103460000E94011A4B015C01C114D104E104F10472
:10347000B9F00E94011A681979098A099B09683E06
:1034800073408105910580F321E0C21AD108E1085B
:10349000F10888EE880E83E0981EA11CB11CE4CFD1
:1034A000FF90EF90DF90CF90BF90AF909F908F9064
:1034B000089581E080932710E1E0F1E08081886742
:1034C00080839D9A8DB188638DB9809A819A829A02
:1034D000839A849A8B9A889A899A8C9A62E370E08C
:1034E00080E090E00E94261A8C9864E670E080E00C
:1034F00090E00E94261A8C9A64E670E080E090E0EA
:103500000E94261A70E060E080EB90E00C94A20A22
:10351000EF92FF920F931F93CF93DF93EC01E62E70
:1035200080912710811102C00E94591A8B988A98A5
:1035300080910201877880930201A5988EB1877CE3
:103540008EB980910201809302018EB18EB984B34D
:1035500084BB8EB18EB9809102018093020189985B
:10356000899A80910201877880930201A5988EB193
:10357000877C8EB920910201CE0115E0880F991F3A
:103580001A95E1F78076822B809302012EB1CE014D
:10359000880F991F880F991F8073822B8EB924B3CF
:1035A000CE01880F991F8072822B84BB2EB1CE0171
:1035B00095958795959587958870822B8EB9809182
:1035C000020153E0D595C7955A95E1F7C871C82B0C
:1035D000C09302018998899A8A9A8091010187781B
:1035E000809301019D988DB1877C8DB961E070E079
:1035F00080E090E00E94261A61E070E080E090E0B8
:103600000E94261A889A889888988898D0910001F4
:103610001CB102B3CCB1F0900001889A61E070E077
:1036200080E090E00E94261A889A88988898889866
:10363000409100015CB1E2B39CB1F0910001889A25
:10364000EA946FEFE612D8CF889A8B9A80910101A5
:103650008867809301019D9A8DB188638DB984E05C
:10366000C89F900111242072332788E0F89EB00192
:103670001124607C7727262B602F70E07595679565
:1036800060717727262B612F70E07595679575958A
:1036900067956C707727262B6D2F70E0B5E07595D8
:1036A0006795BA95E1F763707727262B64E0969FBC
:1036B000C0011124807298E0F99FB0011124607C50
:1036C000862BE695E0718E2B569556955C70852B72
:1036D00050E0C5E055954795CA95E1F74370842BB6
:1036E000922FDF91CF911F910F91FF90EF9008954E
:1036F0000F931F93CF93DF938C0160E00E94881A91
:10370000EC0161E0C8010E94881A8C01BE0190E0C2
:1037100080E0CB017727662730E020E0602B712B1B
:10372000822B932BDF91CF911F910F910895FF92E0
:103730000F931F93CF93DF938C0160E00E94881A50
:10374000EC0161E0C8010E94881AF82E62E0C8010D
:103750000E94881AAE0170E060E0742F662755273A
:10376000442700E030E020E0402B5F29622B732BE0
:10377000292F30E0C901B0E0A0E08A019B01082BAD
:10378000192B2A2B3B2BC901B801DF91CF911F9137
:103790000F91FF9008950F931F93CF93DF93EC0148
:1037A0008B01FE0185919491FE01329624966591DC
:1037B00074918F3F980771F490E080E00E94261A80
:1037C000045011091016110664F3DF91CF911F9177
:1037D0000F9108950E94A20AF3CF0F931F93CF93E6
:1037E000DF93EC018B01FE01849131966491229666
:1037F0008F3799F470E090E080E00E94261A60E034
:1038000070E06E5F7F4F061B170B101611065CF3FE
:10381000DF91CF911F910F9108958B988A98909185
:103820000201977890930201A5989EB1977C9EB96A
:103830004091020190E09C0155E0220F331F5A9500
:10384000E1F72076242B209302014EB19C01220F38
:10385000331F220F331F2073242B2EB944B39C0136
:10386000220F331F2072242B24BB4EB19C013595AF
:103870002795359527952870242B2EB92091020184
:10388000A3E095958795AA95E1F78871822B80939F
:1038900002018998899A50E040E0461708F045C037
:1038A000FE01E40FF51FE4918A9A80910201877866
:1038B00080930201A5988EB1877C8EB97091020128
:1038C0008E2F90E09C01E5E0220F331FEA95E1F78F
:1038D0002076272B209302017EB19C01220F331FFB
:1038E000220F331F2073272B2EB974B39C01220F94
:1038F000331F2072272B24BB7EB19C013595279561
:10390000359527952870272B2EB9E091020123E0E9
:10391000959587952A95E1F788718E2B8093020102
:103920008998899A4F5F5F4FB8CFC60FD11D8B9A88
:1039300067CFAF92BF92CF92DF92EF92FF920F9339
:103940001F93CF93DF936C017B018B01040F151F35
:10395000EB015E01AE18BF08C017D10759F069919D
:10396000D601ED91FC910190F081E02DC6011995F1
:10397000892B79F7C501DF91CF911F910F91FF90AE
:10398000EF90DF90CF90BF90AF900895089590E0B2
:1039900080E00895FC01538D448D252F30E0842F65
:1039A00090E0821B930B541710F0CF960895019767
:1039B0000895FC01918D828D981761F0A28DAE0F54
:1039C000BF2FB11D5D968C91928D9F5F9F73928FDB
:1039D00090E008958FEF9FEF0895FC01918D828D07
:1039E000981731F0828DE80FF11D858D90E00895D4
:1039F0008FEF9FEF0895FC01918D228D892F90E02C
:103A0000805C9F4F821B91098F73992708958AECE0
:103A100090E10E94FB1C21E0892B09F420E0822F19
:103A20000895FC01A48DA80FB92FB11DA35ABF4F53
:103A30002C91848D90E001968F739927848FA689AD
:103A4000B7892C93A089B1898C91837080648C9301
:103A5000938D848D981306C00288F389E02D8081B0
:103A60008F7D80830895EF92FF920F931F93CF93E2
:103A7000DF93EC0181E0888F9B8D8C8D98131AC0A9
:103A8000E889F989808185FF15C09FB7F894EE8990
:103A9000FF896083E889F9898081837080648083ED
:103AA0009FBF81E090E0DF91CF911F910F91FF9038
:103AB000EF900895F62E0B8D10E00F5F1F4F0F73E0
:103AC0001127E02E8C8D8E110CC00FB607FCFACF9B
:103AD000E889F989808185FFF5CFCE010E94111D0B
:103AE000F1CFEB8DEC0FFD2FF11DE35AFF4FF0826C
:103AF0009FB7F8940B8FEA89FB8980818062CFCFD2
:103B0000CF93DF93EC01888D8823B9F0AA89BB8914
:103B1000E889F9898C9185FD03C0808186FD0DC0FF
:103B20000FB607FCF7CF8C9185FFF2CF808185FF20
:103B3000EDCFCE010E94111DE9CFDF91CF91089505
:103B400080E090E0892B29F00E94071D81110E94DE
:103B5000000080E090E0892B49F080E090E0892B24
:103B600029F00E94000081110E94000080E090E096
:103B7000892B49F080E090E0892B29F00E94000019
:103B800081110E94000080E090E0892B49F080E0E4
:103B900090E0892B29F00E94000081110C94000014
:103BA00008956F927F928F92AF92BF92CF92DF92E1
:103BB000EF92FF920F931F93CF93DF935901F70179
:103BC000D601EC018AA19BA16090940270909502AD
:103BD00080909602E901688279828A82C090970279
:103BE000D0909802E0909902E801C882D982EA82D6
:103BF000C0909A02D0909B02E0909C02C082D18239
:103C0000E28200919D0210919E0220919F020D93ED
:103C10001D932C931297603F69F5C090A002D0903D
:103C2000A102E090A202E501C882D982EA82108254
:103C300011821282C090A302D090A402E090A5024B
:103C4000CD92DD92EC9221E0FA012083613109F0FE
:103C500061C0EC0188A18083DF91CF911F910F910A
:103C6000FF90EF90DF90CF90BF90AF908F907F90BC
:103C70006F900895603101F5EC012AA12223A1F093
:103C8000C090A602D090A702E090A802E501C882E9
:103C9000D982EA82108211821282C090A902D09049
:103CA000AA02E090AB02CCCFE501688279828A82D9
:103CB000C082D182E282F1CF6131D1F3623059F416
:103CC00020EE208311821282C090AC02D090AD020F
:103CD000E090AE02B5CF633059F4108220EE21831C
:103CE0001282C090AF02D090B002E090B102A8CF93
:103CF0002BEF260F223058F41082118220EE2283FF
:103D0000C090B202D090B302E090B40299CF60327A
:103D100098F799CF603109F09FCFFC01878DEA01B8
:103D200088839ACF21E0FC0121A312A2089580E0AC
:103D30000895009731F0FC012081318121603183A9
:103D400020830895272F66956695669570E0762FF7
:103D50006627770F770F770F2695269590E2299F94
:103D600090011124622B732B8695869586959B0175
:103D7000282BC90108952F923F924F925F926F9224
:103D80007F928F929F92AF92BF92CF92DF92EF92EB
:103D9000FF920F931F93CF93DF93CDB7DEB72F978B
:103DA0000FB6F894DEBF0FBECDBF7F836E835987F9
:103DB0004887D901B9016E5F7F4F002309F4B9C06C
:103DC000F901F4912F2F30E0322F2227FD01319697
:103DD0004491E42FF0E0FB83EA834A815B81422B2C
:103DE000532B5F874E87AD014C5F5F4F002309F473
:103DF000A9C0FB01649170E0762F6627FD01339620
:103E0000E491F0E09F01262B372B3B832A83BA01F4
:103E10006F5F7F4F002309F49EC0FA01F491F9838C
:103E20009A012E5F3F4F002309F499C0FB01549083
:103E3000F90144901A01B4E02B0E311C2E853F8508
:103E4000295F3F4F37FF04C02E853F85225F3F4FDC
:103E5000F90123E0F595E7952A95E1F7FD83EC83D9
:103E6000D12CC12C10E0B12CA12C9C012C593F4F1E
:103E70003D872C874A815B81A416B5060CF084C06F
:103E8000F12CE12CC1018C0D9D1D9B878A878884B4
:103E900099848A0C9B1CAE85BF85EA16FB060CF044
:103EA0006BC0C70187709927110F892B71F4F70137
:103EB00083E0F595E7958A95E1F7002309F456C06C
:103EC000EC0DFD1DE20DF31D149117FF2EC06E8049
:103ED0007F806E0C7F1CAC85BD85ED91FC912381AC
:103EE0003481621673060CF1878190850197820FE9
:103EF000931F86159705CCF025813681821693068F
:103F0000A4F0818592850197820F931F88159905EA
:103F100064F06981752D842D0E94A21E9C01A4016C
:103F2000B30187E691E10E94D40EBFEFEB1AFB0AC2
:103F3000B2CF2C91298330E0322F222711964C9159
:103F4000119747CF12966C91129770E0762F6627E3
:103F50001396EC9156CFDA01BC91B98361CFDA01A7
:103F600011965C90119712964C9064CF2A853B85F0
:103F7000E20FF31F1081A9CFEFEFAE1ABE0A2C811A
:103F80003D81C20ED31E76CF2F960FB6F894DEBFBA
:103F90000FBECDBFDF91CF911F910F91FF90EF909A
:103FA000DF90CF90BF90AF909F908F907F906F9059
:103FB0005F904F903F902F9008952F923F924F9295
:103FC0005F926F927F928F929F92AF92BF92CF92A9
:103FD000DF92EF92FF920F931F93CF93DF9300D066
:103FE00000D01F921F92CDB7DEB709831A832B83AF
:103FF0003C834D835E836F83788749815A818C59D6
:104000009F4FDC01ED91FC91A380B4806D807E8098
:10401000B1E06B1A7108640E751E6A147B040CF40F
:1040200045C02780308421E0221A31082A0C3B1C2D
:1040300024163506DCF18B819C81858096804F802B
:104040005884A1E04A1A5108480E591E48145904D0
:104050006CF10185128501501109080D191D081711
:10406000190724F1A416B5060CF45A01881699060E
:104070000CF44C018E2DB6010E94A21E4016510672
:104080000CF48201081919090F5F1F4F62147304A1
:104090000CF413012A183B0891012F5F3F4F7C015C
:1040A000A401B50187E691E10E945A0C81E02896AF
:1040B0000FB6F894DEBF0FBECDBFDF91CF911F9139
:1040C0000F91FF90EF90DF90CF90BF90AF909F90B7
:1040D0008F907F906F905F904F903F902F900895BA
:1040E000CF93DF93FC01892B09F45BC0138212820A
:1040F00081E398EF9183808384E090E095838483CB
:1041000089EA94EE97878687DF01169688E0ED01AD
:1041100019928A95E9F7158E148E178E168E11A2B4
:1041200010A213A212A215A214A217A216A211A6DF
:1041300010A613A612A68091940290919502A091C8
:104140009602808B918BA28B838B948BA58B868B15
:10415000978BA08F818F928FA38F12AA11AA17A677
:1041600016A610AA83AB94ABA5AB86AB97ABA0AF5A
:1041700082E281AF12AE13AE15AE14AE17AE16AE1C
:10418000DF01A05CBF4F11961C921E9212961196F1
:104190001C921E9212961D921C92EA5BFF4F118296
:1041A0001082DF91CF910895CF93DF93FC01EE57FA
:1041B000FF4F408150E020E032973CE1822F022EF9
:1041C000000C990B841795072CF090E080E0DF91AC
:1041D000CF910895808191812302800D911D11243A
:1041E000EC01AA89BB89A617B70789F32F5FE6CF31
:1041F000DC011D968C911D9730E020E090E0891342
:1042000004C0F0E0E0E0CF0108951A96ED91FC9132
:104210001B97E20FF31F265F3F4F408151814617E6
:10422000570789F39F5FEBCFEF92FF920F931F9396
:10423000CF93DF9300D000D01F921F92CDB7DEB78F
:10424000DC0109831A832B833C834D835E836F8358
:10425000788714960D911C9115970115110531F071
:104260001696ED91FC9117973097A1F488E0FE0126
:10427000319601900D928A95E1F728960FB6F89441
:10428000DEBF0FBECDBFDF91CF911F910F91FF9089
:10429000EF90089529813A81EB80FC806D917C91AB
:1042A000119712964D915C91139701501109060FC9
:1042B000171F3197E40FF51F261737070CF4B901C4
:1042C000E416F5060CF4A7018D819E810197820FFB
:1042D000931F801791070CF4C8012F813885215056
:1042E00031092E0D3F1D2E173F070CF49F0111962B
:1042F0007C936E9313965C934E931297861B970B49
:10430000019615969C938E931497241B350B2F5F63
:104310003F4F17963C932E931697AFCF0F931F9353
:10432000CF93DF9300D000D01F921F92CDB7DEB79E
:1043300009831A832B833C834D835E836F83788745
:10434000FC01EE56FF4F20818D569F4F222371F0C6
:104350002B810E94142128960FB6F894DEBF0FBE61
:10436000CDBFDF91CF911F910F91089521E0208360
:1043700028E0FE013196DC0101900D922A95E1F7CB
:10438000EACF7F928F929F92AF92BF92CF92DF92AD
:10439000EF92FF920F931F93CF93DF937C01762EC2
:1043A0005A01C62ED12C8601000F111F080F191FAC
:1043B0000C571F4FF801C081D181209709F462C0CA
:1043C0008A889B8890E080E04934544FA1F0B50181
:1043D000C7010E94D420009771F4DF91CF911F9103
:1043E0000F91FF90EF90DF90CF90BF90AF909F9094
:1043F0008F907F900895F80191838083A814B90469
:1044000051F0E114F10439F081E0F701E057FF4F7A
:104410008083BA978083209781F00C891D892E892B
:104420003F89488D598D6A8D7B8DC7010E948E21F1
:1044300081E0F701EE56FF4F8083E601CE5BDF4F50
:10444000CC0FDD1FCE0DDF1D6701F2E9CF0ED11CB1
:10445000BB24B394E991F991309769F004891589E7
:1044600026893789408D518D628D738DC7010E94D9
:104470008E21F601B082F2E07F1609F4AECF92E011
:10448000792EE8CF89E4882E84EF982E4934544F52
:10449000A1F29DCF6F927F928F929F92AF92BF9227
:1044A000CF92DF92EF92FF920F931F93CF93DF9300
:1044B0007C019091AB108091AA10981708F063C00E
:1044C00039015A01C091A810D091A9102CE1929FF6
:1044D000C00DD11D1124209799F15B834A831D8261
:1044E0001C8280E090E49F838E8379836883912C83
:1044F000812CD12CC12C88819981880D991D0E9415
:1045000070208FEFC81AD80AE8E48E0E911CAC1404
:10451000BD0489F71B870A871D861C8668867986F5
:10452000F30190E080E01182108201963496C81663
:10453000D906C9F71F861E8681EF98ED998B888B67
:10454000FB8AEA8A649688E0FE0111928A95E9F76F
:104550008091AB108F5F8093AB10E091AE10F09123
:10456000AF10309729F0828993898934944F31F4C0
:10457000A70161E088E290E10E94C12181E080937F
:10458000B81080938E10DF91CF911F910F91FF9003
:10459000EF90DF90CF90BF90AF909F908F907F90E3
:1045A0006F900895CF93DF93EC0149E454EF62E0FC
:1045B0000E94C121FE01EA57FF4F80819181892B22
:1045C00029F081E03596808333968083FE01EC5795
:1045D000FF4F80819181892B31F0369681E0808375
:1045E000C357DF4F8883DF91CF9108952F923F9279
:1045F0004F925F926F927F928F929F92AF92BF92F3
:10460000CF92DF92EF92FF920F931F93CF93DF939E
:10461000CDB7DEB72C970FB6F894DEBF0FBECDBF77
:10462000FC017C836B835E834D8338872F831A87DD
:104630000987C080D180A280B3808480958021E0EA
:10464000821A91088C0C9D1CE680F78031E0E31AF9
:10465000F108EA0CFB1C8C149D040CF46AC01401D4
:10466000DA82C98237012501EA14FB0414F435010A
:10467000270170E060E090E080E0EB81FC81008148
:104680001181ED81FE810190F081E02DFC87EB87A7
:10469000EF81F88540815181A985BA85ED91FC9122
:1046A00031E00C151D052CF032E0801691060CF05F
:1046B00030E0AB85BC85AA15BB050CF03EC034606C
:1046C00021E04C155D052CF022E0841695060CF0D7
:1046D00020E0EA15FB05CCF52460A32FA22309F006
:1046E000B2C03111232F23FF53C0401B510BD30104
:1046F0008B859C85A81BB90B4A9FC0014B9F900DD1
:104700005A9F900D1124BF014B855C85641B750B6E
:104710000E94ED55CB01800F911FB30132138CC065
:10472000EB81FC8191838083ED81FE8171836083C5
:10473000A4CF16019A82898295CFAB85BC85EA16F3
:10474000FB060CF0BDCF3860BBCFEE16FF0614F4AD
:104750002860C3CF3111C1CF2111BFCF81E02C968A
:104760000FB6F894DEBF0FBECDBFDF91CF911F9182
:104770000F91FF90EF90DF90CF90BF90AF909F9000
:104780008F907F906F905F904F903F902F90089503
:1047900022FF1AC0401B510BD2018B859C85A81BA0
:1047A000B90B4A9FC0014B9F900D5A9F900D112449
:1047B000BF014B855C85641B750B0E94ED55CB01D9
:1047C000800F911FB201AACF21FF19C08B859C8554
:1047D000E81BF90BD101A01BB10BEA9FC001EB9FB5
:1047E000900DFA9F900D1124BA01601B710B0E946D
:1047F000ED55EB85FC856E0F7F1FC1018FCF20FF2C
:104800008DCF8B859C85E81BF90B69817A81601BB4
:10481000710BE69FC001E79F900DF69F900D11244C
:10482000BA01601B710B0E94ED55EB85FC856E0F84
:104830007F1F89819A8172CFEF81F8859183808370
:10484000E985FA8573CF80E08ACF2F923F924F920D
:104850005F926F927F928F929F92AF92BF92CF9210
:10486000DF92EF92FF920F931F93CF93DF93CDB719
:10487000DEB762970FB6F894DEBF0FBECDBF9A8B3E
:10488000898B09871A872B873C874D875E876F87BF
:10489000788B89849A84AB84BC844D845E842F8415
:1048A00038888E2DB6010E94A21E3C01E989FA8942
:1048B000EC59FF4FC080D1809A828982BC82AB8242
:1048C00081E0481A5108480C591C5E824D82B88616
:1048D000AF8283E0C80ED11C8E01095F1F4F9E017D
:1048E0002B5F3F4FAE014D5F5F4FBE016F5F7F4F4C
:1048F000C6010E94F622882369F00F8118852D8158
:104900003E814B815C8169817A81730187E691E107
:104910000E943B169A82898281E0281A31082A0C6B
:104920003B1C3C822B825E824D8238862F828E0118
:10493000095F1F4F9E012B5F3F4FAE014D5F5F4FE1
:10494000BE016F5F7F4FC6010E94F622882369F087
:104950000F8118852D813E814B815C8169817A812F
:10496000730187E691E10E943B169A828982BC829C
:10497000AB829E828D8238862F828E01095F1F4F07
:104980009E012B5F3F4FAE014D5F5F4FBE016F5FDA
:104990007F4FC6010E94F622882369F00F81188597
:1049A0002D813E814B815C8169817A81730187E62B
:1049B00091E10E943B165A824982BC82AB825E82A0
:1049C0004D8238862F828E01095F1F4F9E012B5F1B
:1049D0003F4FAE014D5F5F4FBE016F5F7F4FC6011E
:1049E0000E94F622882369F00F8118852D813E816F
:1049F0004B815C8169817A81730187E691E10E9434
:104A00003B1681E062960FB6F894DEBF0FBECDBFB5
:104A1000DF91CF911F910F91FF90EF90DF90CF909A
:104A2000BF90AF909F908F907F906F905F904F90CE
:104A30003F902F9008958A3099F450E040E06BE069
:104A400074E08AEC90E10E94991C42E050E069E039
:104A500074E08AEC90E10E94991C90E080E0089557
:104A6000682F8AEC90E10E94331DF7CFCF93DF933C
:104A7000EC01FB0180E090E0309789F0808191812A
:104A800022813381237033272230310541F462962D
:104A900048E450E0BC01CE010E94B855CE01DF9140
:104AA000CF9108956115710511F00C94362590E0B1
:104AB00080E00895BC0188E290E10E945225FC014B
:104AC00022813381A9014270517081E0423051400E
:104AD00009F080E026FD8F5F0895BC0188E290E137
:104AE0000E945225009739F0FC0121A932A92F7CA0
:104AF000206132AB21AB0895BC0188E290E10E94B5
:104B00005225009731F0FC012281338128603383E4
:104B100022830895BC0188E290E10E94522500970B
:104B200039F08C5B9F4F2BE630E3FC01318320830F
:104B300008956F927F928F92CF92DF92EF92FF92C1
:104B40000F931F93CF93DF9300D000D01F921F923B
:104B5000CDB7DEB76B018A010E945225DC011296A7
:104B60002D913C9148E0FC013696DE0111960190B2
:104B70000D924A95E1F77901B1E0EB22FF24A901FA
:104B80004270552722FFABC0C114D10409F4A7C05D
:104B9000F601228126FB222720F92170D22E28E05F
:104BA000D801E22F1D92EA95E9F7D8011896FD0188
:104BB000322F11923A95E9F7B801605F7F4FFB0100
:104BC00011922A95E9F7F801108E118E128E138E2C
:104BD000148E158E168E178E10A211A212A213A279
:104BE00060909402709095028090960264A275A2E3
:104BF00086A217A210A611A628E0FE013196019008
:104C00000D922A95E1F7452B09F474C0E981FA81E8
:104C10006B817C814D815E812F81388542305105C9
:104C20000CF45FC0223031050CF45BC042505109D6
:104C30002250310931966F5F7F4FD8015196FC9316
:104C4000EE93509753967C936E93529755965C9340
:104C50004E93549757963C932E935697FC01238975
:104C600034894589D80191962D933D934C9323899E
:104C700034894589DD2009F446C026893789408D6D
:104C8000F801238F348F458FDC0159962D913D918A
:104C90004C915B97268F378F40A3D6968D919D912F
:104CA000AC9184A395A3A6A3F801EF28E1F1868D2A
:104CB000978DA0A187A390A7A1A728960FB6F894D7
:104CC000DEBF0FBECDBFDF91CF911F910F91FF903F
:104CD000EF90DF90CF908F907F906F90089520E0BD
:104CE0005CCF30E020E050E040E070E060E0F0E0D9
:104CF000E0E0A3CF28E0FE013196DB0101900D92A8
:104D00002A95E1F7ABCF608871888288F801638EBD
:104D1000748E858E268F378F40A3FC0183A994A9BA
:104D2000A5A9F801BECF84A195A1A6A1C3CFAF923A
:104D3000BF92CF92DF92EF92FF920F931F93CF9388
:104D4000DF93433328EF520759F5D0E0C0E0CE019E
:104D5000DF91CF911F910F91FF90EF90DF90CF9057
:104D6000BF90AF900895F701C085D185C801880F25
:104D7000991F880F991FC80FD91FBE01C5010E9436
:104D80003625FC0180819181C816D90601F30F5F99
:104D90001F4FF701848595850817190720F3D5CF94
:104DA0006A017B015C0110E000E0F3CF2F923F929B
:104DB0004F925F926F927F928F929F92AF92BF922B
:104DC000CF92DF92EF92FF920F931F93CF93DF93D7
:104DD000CDB7DEB7C255D1090FB6F894DEBF0FBE0E
:104DE000CDBF3C012B011A0163963FAF2EAF6397F5
:104DF0002A96AFAE2A972B96BFAE2B972C96CFAEA6
:104E00002C972D96DFAE2D972E96EFAE2E972F96E0
:104E1000FFAE2F9760960FAF609761961FAF6197B7
:104E2000CE0101960E947020B10188E290E10E94BB
:104E3000D420009719F588E4FE013196D301019042
:104E40000D928A95E1F7C301CE5ADF4F0FB6F89461
:104E5000DEBF0FBECDBFDF91CF911F910F91FF90AD
:104E6000EF90DF90CF90BF90AF909F908F907F900A
:104E70006F905F904F903F902F900895A201BC01DA
:104E800088E290E10E949726892BA9F65A824982EE
:104E900088E0FE01E75BFF4FDE01179601900D925F
:104EA0008A95E1F763968EAD9FAD63979E838D8360
:104EB000AB966EAD7FADAB9788E290E10E94F82093
:104EC0009EAF8DAF8AA99BA9837F8114910449F479
:104ED00019AA9BAB8AAB8B819C8180689C838B8356
:104EE000AACF98AA8FA6A9962FADA99729AB8860BB
:104EF000F0CF6F927F928F929F92AF92BF92CF929C
:104F0000DF92EF92FF920F931F93CF93DF937C0179
:104F10005B018A01FB01C280D3800E945225EC0113
:104F2000C6018F7C0115110509F45DC021E0F70170
:104F3000EA59FF4F208302301105B1F16C016894EA
:104F4000C4F8B501C7010E9452250097B9F1FC01D0
:104F50008080918087010C571F4F3701FAE86F0E50
:104F6000711CF801619171918F016115710559F101
:104F7000A401C7010E949726009729F1FC018281B4
:104F800087FD25C0F501D382C282DF91CF911F91A9
:104F90000F91FF90EF90DF90CF90BF90AF909F90D8
:104FA0008F907F906F900895960120733327203162
:104FB000310539F26C016894C5F8C3CF81E3882EBE
:104FC00088EF982EC7CF6016710659F6DBCF0E8199
:104FD0001F81288539854A855B856C857D85C7015C
:104FE0000E948E21CFCF6C01CDCF6115710511F0DC
:104FF0000C94792708954F925F926F927F928F92CF
:105000009F92AF92BF92CF92DF92EF92FF920F9357
:105010001F93CF93DF93CDB7DEB760970FB6F894A9
:10502000DEBF0FBECDBF3C01162FBC0188E290E170
:105030000E945225FC01DE011196892B09F084C0E3
:1050400088E0FD0111928A95E9F789809A80AB800A
:10505000BC80CD80DE804F805884812F012E000CD3
:10506000990BFEEF1F02B0011124C616D7060CF4EF
:1050700072C0461657060CF46EC09C01220F331FF7
:10508000C20ED31E420E531E881A990AA81AB90AD4
:10509000B30188E290E10E9452257C01009709F457
:1050A00063C0FC01068117812085318542855385C7
:1050B0006485758588E290E10E948E21082D9A868C
:1050C00089862A2DBC86AB864C2DDE86CD86642D46
:1050D000588A4F861A853C855E85788988E290E1FA
:1050E0000E948E2141E050E0B30188E290E10E94ED
:1050F000F52781E08093B81080938E10F701978296
:105100008682B186A086D386C2865586448641E0D3
:1051100050E0B30188E290E160960FB6F894DEBFEC
:105120000FBECDBFDF91CF911F910F91FF90EF90F8
:10513000DF90CF90BF90AF909F908F907F906F90B7
:105140005F904F900C94F52798E0369601900D9261
:105150009A95E1F77ACF512C412CD12CC12CB12C4E
:10516000A12C912C812C94CF60960FB6F894DEBFC1
:105170000FBECDBFDF91CF911F910F91FF90EF90A8
:10518000DF90CF90BF90AF909F908F907F906F9067
:105190005F904F900895EF92FF920F931F93CF93DC
:1051A000DF938B01BC0188E290E10E94D4207C0156
:1051B000D0E0C0E0009709F464C0DC011C96CD91FA
:1051C000DC911D97AE014F5F5F4F1A968D919C91B8
:1051D0001B978417950708F45CC01496ED91FC9119
:1051E0001597BF016F5F7F4F12968D919C9113971A
:1051F0008617970708F44DC028E42E9FC0012F9F03
:10520000900D1124ED91FC918E0F9F1FF801DC0190
:1052100001900D922A95E1F7F70175836483CC0F15
:10522000DD1FCC0FDD1F20853185C20FD31F21E884
:1052300030E03B832A83998388835587448741E004
:1052400050E0BE0188E290E10E94F527CE010E9465
:105250005A25882321F0682FCE010E94FB27BE012A
:1052600088E290E10E943625FC01068117812085A5
:1052700031854285538564857585C70144960E94B2
:105280001421CE01DF91CF911F910F91FF90EF90EC
:105290000895D0E0C0E0DACF8F929F92AF92BF9294
:1052A000CF92DF92EF92FF920F931F93CF93DF93F2
:1052B000CDB7DEB7C859D1090FB6F894DEBF0FBE1F
:1052C000CDBF2A960FAF2A972B961FAF2B972C9600
:1052D0002FAF2C972D963FAF2D972E964FAF2E9731
:1052E0002F965FAF2F9760966FAF609761967FAFF5
:1052F00061971F921F92CF9247012A96AFAC2A97CF
:105300002B96BFAC2B972C96CFAC2C972D96DFAC61
:105310002D972E96EFAC2E972F96FFAC2F97609679
:105320000FAD609761961FAD619723E030E050E0CC
:1053300040E0BC01CE018F5A9F4F0E94D62688E4E0
:10534000FE01EF5AFF4FDE01119601900D928A95F2
:10535000E1F71C8A1D8A1E8A1A8E1B8E1C8E809174
:10536000970290919802A0919902898B9A8BAB8BAE
:105370008F8B988FA98F8091A0029091A102A0910C
:10538000A2028CAB9DABAEAB8FAB98AFA9AF8B81BC
:105390009C8181609C838B8381E28AAFBE016F5FB9
:1053A0007F4F90E080E00E94CB280F900F900F90ED
:1053B000C856DF4F0FB6F894DEBF0FBECDBFDF91EA
:1053C000CF911F910F91FF90EF90DF90CF90BF9002
:1053D000AF909F908F900895CF93DF93EC01BC0125
:1053E00088E290E10E945225009779F0FC01228129
:1053F00033812E7F3383228341E050E0BE0188E277
:1054000090E1DF91CF910C94F527DF91CF91089532
:10541000CF93DF93EC01BC0188E290E10E9452251A
:10542000009769F025E0FC0122AF23AF41E050E096
:10543000BE0188E290E1DF91CF910C94F527DF91D6
:10544000CF9108952F923F924F926F927F928F92B9
:10545000CF92DF92EF920F931F93CF93DF93EC01E4
:105460001A01462E3801822EBC0188E290E10E948A
:105470005225FC01892B09F441C081899289208938
:10548000211104C0811102C081E0911180E080FFF0
:1054900018C0848995892389211104C0811102C013
:1054A00081E0911180E080FF0CC0828D938D218D71
:1054B000211104C0811102C081E0911180E080FDC2
:1054C0001DC0208A318A428A638A748A858AC18E85
:1054D000D28EE38E41E050E0BE0188E290E1DF91A0
:1054E000CF911F910F91EF90DF90CF908F907F9091
:1054F0006F904F903F902F900C94F527DF91CF91B4
:105500001F910F91EF90DF90CF908F907F906F90D1
:105510004F903F902F900895FF920F931F93CF933A
:10552000DF93EC01BC0188E290E10E9452258C01DE
:10553000892BF9F0CE010E945A25F82EF8018281BC
:105540009381826093838283CE010E945A25682FC3
:105550006F1919F0CE010E94FB2741E050E0BE0117
:1055600088E290E1DF91CF911F910F91FF900C9411
:10557000F527DF91CF911F910F91FF9008952F9202
:105580003F924F925F926F927F928F929F92AF92D3
:10559000BF92CF92DF92EF92FF920F931F93CF9320
:1055A000DF9300D01F92CDB7DEB73C015B015A8379
:1055B000498329014801170186012DB73EB73C8375
:1055C0002B83FC01868197810E943308F30180853B
:1055D000811101C081E080937B1180937C118981CE
:1055E0009A8183709927009749F59101A401B2012E
:1055F000C5010E94530890E080E00E94330881E0DA
:10560000EB81FC810FB6F894FEBF0FBEEDBF0F908B
:105610000F900F900F90DF91CF911F910F91FF90FE
:10562000EF90DF90CF90BF90AF909F908F907F9042
:105630006F905F904F903F902F9008950197D9F60B
:10564000CDB6DEB6C5010E94C1553C0101962DB70D
:105650003EB7281B390B0FB6F8943EBF0FBE2DBFC7
:105660008DB79EB701967C01A301B5010E94CA5572
:10567000F701E60DF71D10829101A401B201C701E7
:105680000E9453080FB6F894DEBE0FBECDBEB3CF56
:105690000E940956CF93DF93FC01C2A1D3A10296C9
:1056A00021E029A322812D3209F419A21AA26EE267
:1056B00070E00E942056892B11F081E08AA3DF91CF
:1056C000CF9108954F925F926F927F928F929F92A7
:1056D000AF92BF92CF92DF92EF92FF920F931F9300
:1056E000CF93DF938C01642EFB0101900020E9F73A
:1056F0003197DE2FD61B7B01812C912C542E509498
:105700005C0182E0A80EB11C792C760C9D1690F0FD
:10571000882DDF91CF911F910F91FF90EF90DF9037
:10572000CF90BF90AF909F908F907F906F905F9041
:105730004F900895C72CD12CD801CC912C2F30E05C
:10574000C6010196821793078CF51196EC918E2F66
:1057500090E00196C1508217930714F4C1E0CE0F78
:10576000F7014080452D49194C0F141664F4042E9E
:10577000000C550BB5016C0D7D1DC60101968A0DFF
:105780009B1D0E940E56F801EC0DFD1D4282D801B2
:105790001196CC93F801EC0FF11D1282F801868965
:1057A000871510F08F5F868B81E001C080E0882A2A
:1057B0009394FFEFEF1AFF0AA7CF1F93CF93DF93C6
:1057C000662311F1FC0141814423F1F0162FEC0115
:1057D0000296262F30E0461B50E0BC01620F731F7B
:1057E00021503109820F931F0E940E56E981E1502A
:1057F000E983EC0FFD2FF11D12828E89811710F0C5
:1058000081508E8B81E001C080E0DF91CF911F91AC
:1058100008950F931F93CF93DF934115510549F0DE
:105820008C01EA012197AE010E944056C00FD11FA2
:105830001882DF91CF911F910F910895DC0192960C
:10584000ED91FC9186819781DC01F0E0E0E05C91D4
:105850005F3FC1F4E1E3F8EF56E05E9FD0015F9F48
:10586000B00D1124A80FB91F15968C9181110FC08E
:105870006052E62FF0E0E45FFB4F8081F901808306
:10588000118208951696651739F33196E0CF50E0EE
:105890008130D1F4E4E7F2E090E080E070817F3F76
:1058A00071F481E398EFFC01EE0FFF1FE80FF91F81
:1058B000EC58FD4F61817281C9010C94092C33961B
:1058C000671789F30196EACF6BE074E0F5CFBF92DA
:1058D000CF92DF92EF92FF920F931F93CF93DF93BC
:1058E00000D000D0CDB7DEB76A01DC019296ED9012
:1058F000FC90F70126813781D901F0E0E0E05C916E
:105900005F3FF1F5E1E3F8EF76E07E9FA0017F9F36
:10591000500D1124240F351FD90115962C912330D9
:10592000F9F08C01211131C09E012F5F3F4F46E0FD
:105930000E941E2CF70181A1811105C0D801569645
:105940008C91882369F0F8014689BE016F5F7F4F13
:10595000C8010E94622B882319F0C6010E94991E7B
:1059600026960FB6F894DEBF0FBECDBFDF91CF9164
:105970001F910F91FF90EF90DF90CF90BF9008950F
:105980001696651709F23196BACF61112CC0DC0169
:105990005696EC91EE2381F0E80FF92FF11D8181ED
:1059A0008E3281F4F701878D882319F082A181114D
:1059B00012A2C6010E94C109F8016689C8010E94AD
:1059C000DD2BC9CF8D32C1F7D70190968C9190977E
:1059D000882391F391968C9191978111EDCF81E07D
:1059E00091968C93E9CF6131E1F4D70190968C9137
:1059F0009097882309F4B4CF91969C9181E0B92EB9
:105A0000B826992349F040E067E174E0C8010E949C
:105A1000622BF701B1A2A1CF61E0C8010E94DD2B8A
:105A2000F8CF603109F09CCFD7015F968C915F97DA
:105A3000882309F495CF92968C91811191CFF8012A
:105A4000468969E174E0C8010E94622B882319F03D
:105A5000C6010E94991E81E0D70192968C93C601DF
:105A60000E94C1097DCFAF92BF92CF92DF92EF9299
:105A7000FF920F931F93CF93DF938C017B016A01F9
:105A80000E945225009719F1FC01C0A9CC23F9F01E
:105A9000D0E0A6A4B7A4AE01B601C5010E9432565B
:105AA000892BA9F0AE01B601C5010E94092C42E084
:105AB00050E0B701C801DF91CF911F910F91FF9086
:105AC000EF90DF90CF90BF90AF900C94F527DF91CF
:105AD000CF911F910F91FF90EF90DF90CF90BF90EB
